:100000006F00606800000000160500001805000081
:1000100000000000000000000000000000000000E0
:1000200000000000000000000000000000000000D0
:1000300084060000000000003C05000000000000F5
:100040008406000084060000840600008406000088
:100050008406000084060000840600008406000078
:10006000840600008406000052020000840600009E
:100070008406000084060000840600008406000058
:10008000BE01000084060000840600008406000013
:100090008406000084060000840600008406000038
:0800A0008406000000000000CE
:1000A800511126C022C206C4828282441244A24050
:1000B80031018280634E050263C305042E86AA853A
:1000C8007D5515C285466378B6006356C00006069E
:1000D8008606E36CB6FE014563E4C500918D558D37
:1000E80085820582F5FA82808682C93F2E858282C2
:1000F8003305A0406347B000B305B040C1B7B305AE
:10010800B0408682653F3305A0408282868263C7FD
:100118000500634905005D372E858282B305B0402E
:10012800E35B05FE3305A040513F3305B0408282B2
:1001380000002A8309CA83830500230073007D1603
:10014800050385056DFA8280B727000882878280BB
:10015800EFF21FF52A848307040095C7B7440140CE
:10016800B74701409305000813850780EF00504901
:1001780065D983050400138504800504C205C1817F
:10018800EF001047C9BF15B7EFF29FF15111854530
:1001980013050002EF0070348547371501407C8055
:1001A8003EC28A8593078004130505403EC4EF00CC
:1001B800F0133101DDBD611126C0B744014013853C
:1001C800048022C2EF00504337070020834797037B
:1001D800371400201304C403B306F400850793F70B
:1001E800F70FA30CF702C8A20D47637BF704B7E724
:1001F80000E0054723A2E7180F1000000546930505
:10020800000413850480EF00903D4C205C300565A8
:10021800E205C207DD8D7C3013050553DD8D7C209A
:10022800A207DD8D0CC4EF106028996537250008FA
:10023800092591476316F50005651305C553093F60
:1002480012448244210173002030611137050200F5
:1002580022C226C01D233714002085471304C40377
:100268006313F50A37050200112B5C448564B71542
:10027800002037250008138604809385C5833E95A2
:10028800EF00E0764C44938404809147A6954CC4D3
:100298006317F500056513050555EF102021B7070D
:1002A8000020238C07025C440C449D8D9307F07F4B
:1002B80063E6B704056513058556EF10201F13057F
:1002C800803EEF0010385C44372500083E95B7079C
:1002D800002083C78703BDCFB71500209385C5834A
:1002E800056613060680EF0080709147AA8563189B
:1002F800F506056513054557A13DB93512448244F5
:1003080021017300203037050400852949DD3705B0
:100318000400AD215C448564B7050020372500083A
:10032800138604809385C5033E95EF00406C4C44CA
:10033800938404809147A6954CC46317F50005651E
:100348001305C555EF108016B70700200547238C05
:10035800E70291BFB70500209385C50351B705652E
:1003680013050559EF10801451BF1305803E6F0027
:10037800502DEFF2FFD2B7250008371500201306DD
:100388000010938505F01305C5036533014531BB9E
:10039800EFF21FD12A841165130181FB85454505BC
:1003A800EF00B01385450545EF00501137051600DD
:1003B800854513050518EF00807B930600028544E8
:1003C800E1478A853715014074803EC426C2EF0094
:1003D800E071930700047C808A85914737150140B6
:1003E8003EC426C2212722C637440140B7070C0065
:1003F800130504806C003ECA02C8231C0100EF00EC
:10040800B00F130504808545EF00B01805461305A5
:10041800048093055052EF00101937E700E02322BB
:10042800971085673ED4B70700209387C703130446
:1004380044803ED022CE930700083704024093063A
:1004480000023ED86C088D671305840536DEBEC0F1
:1004580002DC02DA02D602D282C24D2C854513058F
:100468008405CD240546914513058405F524894561
:10047800054613058405CD24B707000437E700E0D7
:100488002320F710FD35093337150140854513053D
:100498000540C12D01E9B71700209387C70398438A
:1004A80011E384C31301810409B1EFF27FBF09642A
:1004B8001111130514028545EF0030023705240891
:1004C800854513050503652591477C80371501404F
:1004D80085473EC28A85E147130505401304045841
:1004E8003EC4292522C637440040B70708006C00DF
:1004F800130504403ECA02C8231C0100EF00C07F58
:10050800854513050440EF00D008710179BE01A0AC
:10051800130181FD2ACA05651305455906D216D06F
:100528001ACE1ECC2EC832C636C43AC23EC0EF0020
:10053800107A01A037260008028673002030EFF2F7
:100548003FB60545F125D128EF00300CB93F71655C
:1005580013050520353D05651305855AEF003077ED
:100568002935FDBF8945B72702408CC3B71702401C
:100578009843B706FF681367170098C3D843758F69
:10058800D8C39843B706D7FEED16758FB706100087
:10059800558F98C39843B706FCFFFD16758F98C30F
:1005A800D843C176FD16758FD8C337079D0098C705
:1005B800984F1367070298CF371701401307074072
:1005C80010431376F6F010C310431366060810C3E1
:1005D8000CCBD843D8C3D843758FD8C3D843B706F4
:1005E8000001D8C39843558F98C3B70600029843B3
:1005F800758F75DFD843B7160240719BD8C3D843AF
:1006080013672700D8C32147DC42B18BE39EE7FE7E
:10061800B7270240094798C38280371702405C43D6
:10062800A146B18B6392D7045C433775DC0213058E
:1006380005C0B7160240D842B707002093870700C5
:1006480011833D8BBA979C23D84293F5F70F137704
:100658000708B357F50011EFEFF29FA48534370769
:1006680000202328A70091B437356E0113050560D3
:10067800C9B7370700202328F700828001A0970117
:1006880000209381211B17210020130121971715A2
:100698000000130525F89705002093852596170671
:1006A80000201306269963FAC5008322050023A0BB
:1006B800550011059105E3EAC5FE1705002013054D
:1006C8006597971500209385A5A76377B500232024
:1006D80005001105E36DB5FE896293820288739067
:1006E80002308D42739042809702000093820291FB
:1006F80093E2320073905230EFF0DFE69702000089
:10070800938222E473901234730020301841E17709
:10071800BD0794517D8F9C45D58F9449D58FD44979
:10072800D58F944DD58FD44DD58FD451D58F945521
:10073800D58FD98F1CC1DC455CC19C411CC5DC41EF
:100748005CC582801C4189C593E717001CC1828063
:1007580041677917F98FDDBF1C4101C6CD8F1CC1D8
:10076800828093C5F5FFFD8D0CC18280B7070240DA
:100778009C437D8D3335A0008280CDBFB7070240F2
:10078800C8C38280B72602409C4A01771307F7FD49
:10079800F98F9CCAA1676319F600372702401C4BE2
:1007A800B7068000D58F11A893070040631FF60293
:1007B800372702401C4B93E727001CCBB727024082
:1007C800C8CB984B1367070498CBD847058B75FFA0
:1007D8002167FD156315E602984BB70680FFFD16E5
:1007E800758F98CB3295D5F9828093070010E3175F
:1007F800F6FC372702401C4BB706020065B7130703
:1008080000406319E600984B13050540759B98CB8B
:10081800C1FD828013070010631BE600984B8176A8
:10082800FD16758F98CB13050510BDFD8280ADFDB3
:100838008280B70600F83D67AA961307F77F6364BE
:10084800D71AB70601083306B50093860680AA872B
:100858001307D00F63EBC618EFF29F84B364B5009B
:1008680093F4F40F41111307E00F639204146380AB
:100878000514370667453727024013063612B79620
:10088800EFCD50C39386B69A54C350D354D3216640
:1008980063EFC5041303F6FF33736500B3066640C0
:1008A8003384C5403307D5001A946386C610B684CE
:1008B800636DC404330687009315160193D215019E
:1008C8003A8381C5617333736600B30554403A8532
:1008D8002166BD813EC636C41AC216C06535A24619
:1008E80082421243B247B68416841A8739A813077E
:1008F800F03F637BB7089376F53F93040040958CEF
:10090800138405C03307950036949306F03F63F8C7
:10091800960293F6F73F89C613060040B306D64001
:10092800B385D4403385F60013060040A9813AC444
:100938003EC236C0813D824622479247B68493061E
:10094800F03F63F986023306E4009376F63F3A8374
:1009580099C2137306C0B305D4403A851306004004
:10096800A9813EC41AC236C0313D82461243A2470D
:1009780036841A87A5C01306001093D584003E85D7
:100988003AC009350247B9A09307F00F63F6B700DC
:1009980013060010A181FD33B7270240984BA166CA
:1009A800558F98CB984B1367070898CB11473A8512
:1009B80041016FF08FEF2166854536C23AC02AC4DF
:1009C800D13392460247A247637DD4009306F03F95
:1009D800E3EB86F671D013060010935584003A8530
:1009E8005DBF8146C1BD1307F00F3A858280B70607
:1009F80000F83D67AA961307F77F6365D70E370798
:100A08000108B306C50013070780AA871305D00F8E
:100A1800636DD70C33E7C7001377F70F1305E00FA3
:100A280069E761C65111370567453727024022C477
:100A380026C213053512B796EFCD48C39386B69AEA
:100A480054C348D354D3144B01751305F5FDE98EEF
:100A580014CB41777D173E859D8D2182B7270240B3
:100A6800C166370304003AC0984B37040800B383C3
:100A7800A500558F98CB984B418F98CBD847058BBD
:100A880075FF930200103384E30004403304E5004B
:100A980004C0804B3364640080CBC047058875FC74
:100AA8001107E31257FEC8CB984B93020510136742
:100AB800070498CBD847058B75FF984B02457D16E0
:100AC800698F98CB11EE984BA1662244558F98CB2D
:100AD800984B924411451367070898CB31018280DF
:100AE800168559B71305F00F82808280944593F7D5
:100AF800060113F3F60081C7DC413363F30083D2A8
:100B0800050093F7F20FA9CF0C41611122C226C04C
:100B18008147930380023D449304800405473317BB
:100B2800F70033F6E2006310C7026397760258C9EC
:100B3800139627003317C4001347F7FF6D8F33163A
:100B4800C300B365E60085072147E399E7FC124433
:100B58000CC1824421018280E39C96FC18C9C9BF5C
:100B680082801C4533F5F5003335A00082803703B9
:100B78000140B70700088326C30013560501131761
:100B88000501E98F3D8A4183BDC7B7073000B372BD
:100B9800F5006394F202370600F97D16B3F7C60034
:100BA8008326C300F18E2326D30095C5458113758E
:100BB80005073317A700D98F39A8B7074000E98F71
:100BC80099CF9D47B397C70093C7F7FFF58F81C5A6
:100BD8003316C700D18F370701405CC78280B7073B
:100BE80020006393F20041069D47B397C70093C75F
:100BF800F7FFF58F5DBFB7071000E98F99C3BD47B1
:100C0800EDB79357150193F70707B317F700C5B763
:100C1800B717002023AEA7128280EFF26FC83717EC
:100C280002405C43A1462A84B18B6394D7085C4395
:100C3800B777DC02938707C01CC0371602405442BE
:100C480037070020130787029182BD8A3697082349
:100C580058429375F50F1377070833D5A70001E7B6
:100C68003E85EFF0AFC548C008C448C4B717024076
:100C7800DC438D46AD83FD8B13D737008A07F18B94
:100C8800D98F13F6370113F7370063F4C6001387BB
:100C980047FFB7170240DC4363CA0700B7070020C5
:100CA80093874701BA978C23EFF04FC108C86FF0BC
:100CB800CFBFB7376E0193870760BDBF99C5371798
:100CC80002405C4BC98F5CCB8280B7170240D84B7F
:100CD8001345F5FF798DC8CB828099C53717024037
:100CE8001C4FC98F1CCF8280B7170240984F1345FD
:100CF800F5FF798D88CF8280EFF28FBA1629F577C4
:100D0800FD17FD8EFE21DA252111D58F1EA9562546
:100D1800FD779387379FFD8EDE212A84AE84D58F99
:100D28009625D58FB625D58F5EA55E29C207C183C6
:100D380093F7F7CFD98F5EA94800C535B74701406B
:100D4800938707806315F404C24765453385A70276
:100D58008C408A05EFF08FB6930540062AC0EFF065
:100D6800EFB593144500024593054006EFF0CFB761
:100D780012059305400613052503EFF02FB43D89AE
:100D8800458D420541810AA461016FF00FB2B24757
:100D98006DBF5E2589C50967D98F5EA58280797781
:100DA8007D17F98FDDBF13F7F50F85471583B395C9
:100DB800B7006319F7009307C500984301CE4D8F1C
:100DC80098C38280894693074501E318D7FE9307A5
:100DD8000501E5B793C5F5FFF98D8CC382805E29BF
:100DE80001C6CD8F5EA9828093C5F5FFED8FDDBF6B
:100DF80093F5F51F4EA182804A211375F51F828055
:100E08000A216D8D3335A0008280EFF26FA9B707F4
:100E1800002003A50701B7157A0093850520EFF098
:100E2800EFA91375F50FB71700202381A7149307AF
:100E3800803E3305F502B71700202390A7146FF002
:100E4800CFA6B7F700E0D843799BD8C3371700205F
:100E5800035707143307A70298CB23A40700984326
:100E68001367170098C3D843058B75DF9843799BA0
:100E780098C38280EFF2CFA261112EC232C0014422
:100E880082476358F402B7440140B74701409305CD
:100E9800000413850780AD376DD992471385048008
:100EA800B3868700838506000504C205C18189379A
:100EB800C1BF024521016FF04F9F411106C62EC0E8
:100EC8000DCD1841AA8705C358417D5511CB8546DC
:100ED800631BD70098472300070023A20700054596
:100EE800B240410182809847824614A3984705077B
:100EF80098C7D8437D17D8C3DDB705468A859D3F77
:100F0800F9BF011126CA06CE22CC2AC02EC2B2844D
:100F180093F71600634D06082E853EC63AC43684FC
:100F2800DD2B2247B2472A83635195086351E504B4
:100F3800998C13040002C1EFA687634FF006A687B9
:100F480063D3040081479D8C635BE30233076740EA
:100F5800BA860245930500033AC83EC636C4B13F77
:100F6800A246B2474247FD16EDF6BA9709A8898C02
:100F7800098861D05DFF95CF8147130400033E8740
:100F88001246B306F740B29683850600B9E1A687F4
:100F98006349F004268663D304000146F2406244A4
:100FA800D2443305E600056182808144D1B701430C
:100FB80049B71304000349B70245A2853AC81AC6BF
:100FC8003EC4E53DA24742473243FD17BDB78147BE
:100FD800A5BF02453AC63EC4CD353247A2470507EC
:100FE80045B70245A2853AC43EC2C13D9247224751
:100FF800FD1779BF397126DA06DE22DC2AC03EC425
:101008002E83BA8491EDA2469307000301472686F2
:101018006C08FC86FD35F2506254D25421618280FE
:10102800B285368491CA294701446317E60063559F
:1010380003003303604005448647A30901021307F0
:101048003103938767FC3EC61A853ACA2EC81AC26E
:10105800EFF08F89A5471243C245524763D4A700D2
:10106800B2473E95130505039307F7FFA30FA7FEA5
:101078001A853ACC2ECA1AC83EC2EFF02F844243D2
:10108800D24562476376B30411C8B1C4A247898BBD
:10109800B9C302459305D002FD140535A247918BCB
:1010A80085C3064793071006024593050003631E90
:1010B800F70221359305800702450904F914F53B29
:1010C8001647A246924502452686253D2295A1B798
:1010D80012472A8395BF92469307D0020144A38FF3
:1010E800F6FE9307E7FF3EC255BFC13B9305800557
:1010F800E1B70145828001458280130181FD22D03C
:1011080006D226CE2AC62EC4328302C80144A2477C
:101118008385070089EDB24781C781453E85713BCC
:10112800925022850254F24413018102828093076F
:101138005002638BF50032451ACA0504BD3B524381
:10114800A24785073EC4E1B7A24793841700838767
:101158001700639AB7003245930550021ACA05046E
:10116800A93B26C4E9BFC5DB1307D0026387E702A2
:10117800634CF70013073002638EE7041307B002CD
:101188006386E704814731A813070003E39CE7FE61
:10119800A24793842700894729A0A2479384270060
:1011A8008547038704009306D0026301D70463C808
:1011B800E60293063002630ED7029306B002630C70
:1011C800D70226C40145A546A94281A0A247938417
:1011D80027004DBFA247938427009147D9B79306AC
:1011E8000003E310D7FE93E7270031A08504854765
:1011F800C9BF93E747008504E9B73305550262077D
:1012080061873A95224705073AC422470306070033
:10121800130706FD9375F70FE3F1B6FE1307E00217
:1012280099466312E60222478146254605073AC4D5
:10123800A945224703070700130707FD9372F70F15
:10124800637A560236C822471306C006030707000A
:101258006302C7046349E602130680066306C708EB
:101268001306A006630BC7081306C0046307C70864
:10127800014635A8B386B60262076187BA96224747
:1012880005073AC47DB7130640076308C706130667
:10129800A007E9BF2246830516000D466396E500C0
:1012A8002247114605073AC4224705073AC4224790
:1012B800930500060307070063D5E5049305800737
:1012C800E3C0E5E893052006E3DCE5E61307D7F974
:1012D8001377F70FD545E3E5E5E685650A079385B6
:1012E800055C2E971843028722468305160001469F
:1012F800E39FE5FA2247090755BF224705073AC485
:1013080085BF9305700463C7E50213064004634B69
:10131800E61693063004E315D7E203270300930487
:101328004300A30C0100230CE100BE8601472A8676
:101338002C08A9A09305800593061004E312B7E0D2
:1013480011476313E608832503000326430093042B
:10135800830036C23EC00147AA87C1463245513B89
:101368002A942683F1BB832503009304430081E577
:1013780085659385855B4247BE862A863245513608
:10138800C5B711476310E60213071006832503004B
:1013980003264300930483003AC23EC00547AA8748
:1013A800A9466DBF424783250300930443003AC210
:1013B800130710063AC085462A87294632451D3943
:1013C80045B793061006ADBF424783250300930433
:1013D80043003AC236C02A8781464146C5B71147FD
:1013E800631FE60013071006832503000326430046
:1013F800930483003AC23EC00147AA8755B74247C3
:1014080083250300930443003AC2130710063AC029
:1014180081462A875DB7114793E74700631CE600BA
:101428001307100683250300032643009304830053
:101438003AC20DB7424783250300930443003AC2DA
:10144800130710063AC041BF11476310E60213079D
:1014580010068325030003264300930483003AC241
:101468003EC00147AA87A146D5BD42478325030050
:10147800930443003AC2130710063AC081462A87EC
:1014880021462DBF1307100483250300930483000E
:10149800032343003AC22A8732453EC01A86B687DC
:1014A800A946913975BD13071006F9BF1301C1FD8F
:1014B8002EC832CAAA851008014506C636CC3ACECF
:1014C8003ED032C01D39B240130141028280411121
:1014D80022C426C206C683070500AA840144DC810B
:1014E800050499EFA9479305310005460145DC81BC
:1014F800EFF05F98B24022852244924441018280F5
:101508000546930531000145EFF0DF96B387840067
:1015180083870700E9B7AA879823850775FF33856E
:10152800A7407D158280000073697A652025640DC7
:101538000A000000657261736520636F6D706C65E9
:1015480074650D0A000000007463352025640D0AD7
:10155800000000006874352025640D0A00000000B2
:101568006C6566742025640D0A00000069617020AE
:10157800636F6D706C6574652C6A756D70696E67E4
:101588002E2E2E0D0A0000002564000048617264AA
:101598004661756C745F48616E646C65720D00001D
:1015A800626F6F746C6F61646572206961700D00A1
:1015B800286E756C6C290000221300008A13000045
:1015C800AE140000AE140000AE1400004811000074
:1015D800481100004811000048110000481100009F
:1015E8004811000048110000501400001E140000AB
:1015F80048110000481100006E1300004811000057
:10160800E61300004811000048110000CA1300004A
:10161800010203040506070801020304050607087A
:10162800006CDC020204060804080C1008101820DC
:10163800102030402040608001020304050607089E
:08164800010203040506070876
:00000001FF
