:100000006F00B07F00000000B00B0000B80B0000D4
:1000100000000000000000000000000000000000E0
:1000200000000000000000000000000000000000D0
:10003000F80F000000000000F80F000000000000B2
:10004000F80F0000F80F0000F80F0000F80F000094
:10005000F8040000F80F0000F80F0000F80F00008F
:10006000F80F0000F80F0000F80F0000F80F000074
:10007000F80F0000F80F0000F80F0000F80F000064
:10008000F80F0000F80F0000F80F0000900B0000C0
:10009000F80F0000F80F0000F80F0000F80F000044
:0800A000F80F00000000000051
:1000A800634E050263C305042E86AA857D5515C2D5
:1000B80085466378B6006356C00006068606E36C7C
:1000C800B6FE014563E4C500918D558D8582058294
:1000D800F5FA82808682C93F2E8582823305A04048
:1000E8006347B000B305B040C1B7B305B0408682DE
:1000F800653F3305A0408282868263C70500634955
:1001080005005D372E858282B305B040E35B05FEAE
:100118003305A040513F3305B040828200001301EF
:1001280041FA86CCA2CAE008232404FE232604FE52
:10013800232804FE232804FC232A04FC232C04FC83
:10014800232E04FC232004FE232204FE232204FA87
:10015800232404FA232604FA232804FA232A04FA77
:10016800232C04FA232E04FA232004FC232204FC63
:10017800232404FC232604FC854513054002EF20B4
:10018800D01A854513050020EF20301A854505450E
:10019800EF2050151165EF206072232804FE99475F
:1001A8002314F4FE85472326F4FE930784FEBE85B8
:1001B800B717014013850780EF10700B93070006EF
:1001C8002314F4FE930784FEBE85B71701401385F8
:1001D8000740EF10D009B727014013850740EF000B
:1001E800F0698547232CF4FC8547232AF4FCB707DC
:1001F8000E00232EF4FC232804FC232004FE894748
:100208002302F4FE930704FDBE85B727014013853A
:100218000740EF00506A8545B7270140138507401E
:10022800EF00507C8545B727014013850740EF1044
:10023800003E8545B727014013850740EF00B0769B
:10024800B707024013858700EF102042B727014007
:100258009387C7442322F4FAB7070020938707053A
:100268002324F4FA232604FA89472328F4FA232AB4
:1002780004FA93070008232CF4FA93070010232E9E
:10028800F4FA930700402320F4FC9307000223228A
:10029800F4FC8D672324F4FC232604FC930744FA1A
:1002A800BE85B707024013858700EF10604F85456C
:1002B800B707024013858700EF1000598D460546A1
:1002C8008545B727014013850740EF00D0798D4653
:1002D80009468145B727014013850740EF00B078EC
:1002E8009D65B727014013850740EF1020158D4500
:1002F800B727014013850740EF10802B9D46054620
:100308009945B727014013850740EF10C0179D4650
:1003180009469545B727014013850740EF10A016F9
:100328009D460D46A145B727014013850740EF10AC
:1003380080158545B727014013850740EF00706E8B
:100348000100E64056441301C10582801301C1FC37
:1003580006D822D6401885454145EF20007D8545C1
:100368000545EF20F000232404FE232604FE23285D
:1003780004FE232E04FC232004FE231204FE23265D
:1003880004FC232804FC232A04FC232C04FCE14756
:100398002328F4FE930700082314F4FE8547232638
:1003A800F4FE930784FEBE8537150140EF10206CDC
:1003B8008545B7074E0813853700EF10F00623115F
:1003C80004FE231F04FC230204FE8567FD17231087
:1003D800F4FE231E04FC9307C4FDBE8537050040C8
:1003E800EF20D0019307C4FC3E85EF2050469307C9
:1003F80000062316F4FC231A04FC85472317F4FC93
:100408009307F03F2319F4FC9307C4FCBE85370516
:100418000040EF20900FA14537050040EF30400124
:10042800854537050040EF20707285453705004047
:10043800EF201047854537050040EF207054010034
:10044800C2503254130141038280797106D622D4F6
:100458000018232404FE232604FE232804FE232C4C
:1004680004FC232E04FC232004FE232204FE23285C
:1004780004FC232A04FC85454545EF20006B9307BF
:1004880080042328F4FE99472314F4FE8547232685
:10049800F4FE930784FEBE8537150140EF10205DFA
:1004A80085450945EF1070138947232CF4FCB147A3
:1004B8002320F4FE85472322F4FE232E04FC930711
:1004C80084FD3E85EF10403CD1472308F4FC854766
:1004D800232AF4FCA30804FC230904FC930704FD65
:1004E8003E85EF20A02D0100B25022544561828044
:1004F800711122C040000945EF100050AA87D9CFDA
:100508000945EF10C054914537150140EF10E069D7
:10051800AA873E8785476315F702B707002083D768
:100528000700C207C187C207C1838507C207C18305
:10053800139707014187B70700202390E7001DA004
:10054800B707002083D70700C207C187C207C18346
:10055800FD17C207C183139707014187B70700201A
:100568002390E700B707002083D7070013970701F8
:100578004187856763D8E700B707002005672390A0
:10058800E70029A8B707002083D70700C207C1875B
:1005980063D60700B7070020239007000100024434
:1005A800110173002030111106CC22CA60082322E1
:1005B800A4FE854513050002EF202057232404FEDE
:1005C800232604FE232804FE930780042328F4FE30
:1005D800832744FEDE232314F4FE85472326F4FEF6
:1005E800832744FE9C43130784FEBA853E85EF109B
:1005F8000048832744FE23930700832744FE23A44F
:100608000700832744FE238607000100E240524486
:1006180071018280311106C822C640082326A4FE33
:100628008327C4FE98438327C4FEDE23BE853A850C
:10063800EF10A057AA87A309F4FE8327C4FE9C479E
:1006480009476382E70A0947636EF70A89C70547BE
:100658006384E70445A8834734FF95EB8327C4FEEA
:10066800FE2385071397070141838327C4FEFAA356
:100678008327C4FEFA23954763F1E7088327C4FE5E
:10068800054798C78327C4FE23930700BDA0832787
:10069800C4FE2393070095A0034734FF8547631FD3
:1006A800F7028327C4FEFE238507139707014183BA
:1006B8008327C4FEFAA38327C4FEFA23954763F071
:1006C800E7048327C4FE094798C78327C4FE2393FA
:1006D80007008327C4FE0547D8A715A08327C4FEB3
:1006E8002393070029A8034734FF8547631BF700B6
:1006F8008327C4FE23A4070029A0010021A001002C
:1007080011A001000100C240324451018280511100
:1007180006C422C26000B707002013854700613570
:100728000100A240124431018280511106C422C244
:100738006000B707002013854700E93D0100A2408B
:100748001244310182801301C1FC06D822D6401818
:100758008545856713850781EF20203D232404FE06
:10076800232604FE232804FE232E04FC232004FE53
:10077800231204FE232604FC232804FC232A04FC59
:10078800232C04FCE1472328F4FEC1472314F4FE7C
:1007980085472326F4FE930784FEBE85371501405E
:1007A800EF10E02C930700202311F4FE231F04FC14
:1007B800230204FE930730062310F4FE856793870F
:1007C800F72B231EF4FC9307C4FDBE85B737014001
:1007D800138507C0EF2080429307C4FC3E85EF20B5
:1007E8001007930700062316F4FC231A04FC854718
:1007F8002317F4FC930710032319F4FC9307C4FC94
:10080800BE85B7370140138507C0EF206071A14549
:10081800B7370140138507C0EF20F04C8545B7373F
:100828000140138507C0EF2070328545B737014076
:10083800138507C0EF20D0068545B73701401385DB
:1008480007C0EF20F0130100C250325413014103D6
:100858008280397106DE22DC80002320A4FC032775
:1008680004FC85476310F714231904FE0DA0835771
:1008780024FF37070020130747058607BA97035751
:1008880024FF9AA3835724FF85072319F4FE0357EF
:1008980024FF93073006E3FCE7FC93074006231880
:1008A800F4FE3DA0835704FF035704FFBA861307DD
:1008B800700C158F42074183B706002093864605C2
:1008C8008607B6979AA3835704FF85072318F4FE73
:1008D800035704FF9307700CE3F6E7FC85450545CD
:1008E800EF204020232204FC232404FC232604FCBC
:1008F800232804FC232A04FC232C04FC232E04FCB8
:10090800232004FE232204FE232404FE232604FEBF
:10091800B707024013858705EF003055B737014008
:10092800938707C42322F4FCB70700209387470561
:100938002324F4FCC1472326F4FC9307800C2328C6
:10094800F4FC232A04FC93070008232CF4FC9307E7
:100958000010232EF4FC930700402320F4FE930795
:1009680000022322F4FE8D672324F4FE232604FECE
:10097800930744FCBE85B707024013858705EF003F
:100988003062054693050010B7370140138507C04C
:10099800EF20700B8545B707024013858705EF00E8
:1009A800B06A01A88145B707024013858705EF00A3
:1009B800B0690100F250625421618280130181FD07
:1009C80006D222D020108545896713851702EF20AB
:1009D800C0158545B707240813850703EF10C02401
:1009E80091472314F4FE85472326F4FEE147232884
:1009F800F4FE930784FEBE85B717014013850740B0
:100A0800EF10E006896793870758232CF4FC231E10
:100A180004FC231F04FC231004FE231204FEA14738
:100A28002311F4FE930784FDBE85B7470040138564
:100A38000740EF2030398545B74700401385074008
:100A4800EF20F05401009250025413018102828079
:100A5800311106C822C640082326A4FE35A8010085
:100A680093050008B747004013850740EF20705AE8
:100A7800AA87FDD78327C4FE83870700C207C183DF
:100A8800BE85B747004013850740EF20D055832720
:100A9800C4FE85072326F4FE8327C4FE8387070048
:100AA800DDFFA30904FE0DA8010093050008B74760
:100AB800004013850740EF20D055AA87FDD793053E
:100AC800F00FB747004013850740EF20D051834708
:100AD80034FF8507A309F4FE034734FF8947E3F58C
:100AE800E7FC01000100C24032445101828031110B
:100AF80006C822C6400805468545B7370140138514
:100B080007C0EF20E06D9967138547C6EF30E073A3
:100B1800B707002083A68701B7370140938707C02E
:100B2800DE37C207C18313871700B73701409387A1
:100B380007C09E37C207C1838507B307F702BE8582
:100B48003685EFF06FD6AA87BE859967138587C863
:100B5800EF30806D232604FE232804FE930730021D
:100B68002306F4FE85472328F4FEA30604FE8547E2
:100B78002307F4FE9307C4FE3E85EF1030440100BE
:100B8800C240324451018280711122C04000854523
:100B9800B7370140138507C0EF2010204D20010012
:100BA8000244110173002030711122C0400001A0DD
:100BB800711122C04000B7E700E03707EFBE130706
:100BC8000708B8C7010001A0511106C422C260007D
:100BD8000545EF10103D2124EF20D047F16713851C
:100BE8000720EF20B052B707002083A78701BE85F2
:100BF8009967138587CAEF302063EF009025AA878D
:100C0800BE859967138507CCEF300062EFF02FD1CE
:100C1800EFF0CFF3EFF07F83DD3C3536C93D793B0C
:100C28009967138547CD2D351305401FEF20D04612
:100C38000545053113054006EF201046E5BF511163
:100C480006C422C26000D53431200100A2401244FB
:100C580031018280511106C422C26000B70700200A
:100C680093874700D8278547631EF704B7070020F6
:100C780083C7470193B7170093F7F70F3E87B70766
:100C88000020238AE700B707002083C7470181CFE8
:100C9800B7370140938707C005671307F72B9AB743
:100CA8000145352011A8B7370140938707C01307BE
:100CB800F04A9AB705452128B707002093874700CF
:100CC800238607000100A2401244310182801111DD
:100CD80006CC22CA60082322A4FE232404FE23266D
:100CE80004FE232804FEC1472328F4FEA147231449
:100CF800F4FE85472326F4FE832744FE91CFA145C1
:100D080037150140EF00106E930784FEBE85371536
:100D18000140EF00D05529A8A14537150140EF0043
:100D2800906E930784FEBE8537150140EF0030545E
:100D38000100E240524471018280411106C622C47A
:100D48000008232804FEB7270240094798C3B717AD
:100D580002409843B71702401367170098C3B717A4
:100D68000240D443B71702403707FF68758FD8C3CE
:100D7800B71702409C432328F4FE032704FFB70754
:100D8800D7FEED17F98F2328F4FE032704FFB707D2
:100D98001000D98F2328F4FEB7170240032704FF59
:100DA80098C3B71702409443B71702403707FCFFB0
:100DB8007D17758F98C3B7170240D443B717024001
:100DC80041777D17758FD8C3B717024037079D0045
:100DD80098C725220100B240224441018280311186
:100DE80006C822C64008232804FE232604FEB71797
:100DF8000240DC43B18B2328F4FE032704FFA147FC
:100E08006302F704032704FFA14763E9E706832782
:100E180004FF99C7032704FF9147630CF700B9A89B
:100E2800B707002037376E011307076023ACE700C8
:100E3800B9A8B707002037376E011307076023AC3E
:100E4800E700B1A0B7170240D843C167F98F23263E
:100E5800F4FE8327C4FE91EBB70700203777DC0246
:100E6800130707C023ACE7001DA0B707002037779A
:100E7800DC02130707C023ACE70011A8B70700205E
:100E880037376E011307076023ACE7000100B71777
:100E98000240DC439183BD8B370700201307C7014D
:100EA800BA979C2393F7F70F2328F4FEB71702404D
:100EB800DC4393F707088DE3B707002083A7870172
:100EC800832504FF3E85EFF02F9EAA873E87B7074C
:100ED800002023ACE70029A8B707002003A7870153
:100EE800832704FF3357F700B707002023ACE70038
:100EF8000100C240324451018280511106C422C20D
:100F08006000B7170240984FB717024013670702EF
:100F180098CFB7170140938707409843B717014008
:100F2800938707401377F7F098C3B7170140938763
:100F380007409843B717014093870740136707088E
:100F480098C3B717014093870740094798CBEF002C
:100F5800106F31200100A2401244310182807111CA
:100F680022C0400037170240B71702405843D8C381
:100F7800B7170240D443B717024041777D17758FE2
:100F8800D8C337170240B71702405843D8C3B7171A
:100F980002409443B717024037070001558F98C3A2
:100FA8000100B71702409843B7070002F98FF5DB35
:100FB800B7170240D843B7170240719BD8C3B71779
:100FC8000240D843B717024013672700D8C301006F
:100FD800B7170240DC4313F7C700A147E31AF7FE2F
:100FE800B7270240094798C30100024411018280D3
:100FF80001A097010020938161851711002013013A
:10100800E1FF17550000130565E397F5FF1F93856A
:10101800E5FE17F6FF1F1306660363FAC500832271
:10102800050023A0550011059105E3EAC5FE17F553
:10103800FF1F1305A5019385C1996377B500232088
:1010480005001105E36DB5FE8962938202887390ED
:1010580002308D427390428097F2FFFF938202FA2A
:1010680093E2320073905230EFF03FCD97020000C8
:101078009382C2B57390123473002030411106C6B2
:1010880022C400082328A4FE032704FFB727014031
:1010980093870740631CF700854513050020EF1070
:1010A8009031814513050020EF10F0300100B24067
:1010B800224441018280311122C840082328A4FE1D
:1010C8002326B4FE232C04FEA30B04FE832704FF6F
:1010D800DC43232CF4FE032784FFB707F1FF938733
:1010E800F7EFF98F232CF4FE8327C4FE9843832758
:1010F800C4FEDC43A207D98F032784FFD98F232C92
:10110800F4FE832704FF032784FFD8C3832704FF43
:101118009C47232CF4FE032784FFB7F7F1FF93873E
:10112800D77FF98F232CF4FE8327C4FE984B83279F
:10113800C4FEDC475D8F8327C4FE9C478607D98F92
:10114800032784FFD98F232CF4FE832704FF03276A
:1011580084FF98C7832704FFDC57232CF4FE03275A
:1011680084FFB70710FFFD17F98F232CF4FE8327A0
:10117800C4FEDC2BFD1793F7F70F034774FFD98FD5
:10118800A30BF4FE834774FFD207032784FFD98F8C
:10119800232CF4FE832704FF032784FFD8D70100FC
:1011A800424451018280511122C46000232CA4FEC4
:1011B800232AB4FE832744FF91CB832784FF9C47CF
:1011C80013E71700832784FF98C709A8832784FF9C
:1011D8009C4713F7E7FF832784FF98C70100224441
:1011E80031018280511122C46000232CA4FE232ADD
:1011F800B4FE832744FF91CB832784FF9C4713E7E2
:101208000710832784FF98C709A8832784FF9C4772
:1012180013F7F7EF832784FF98C7010022443101B1
:101228008280511122C46000232CA4FE232AB4FE1C
:10123800832744FF99CB832784FF9847B70750003B
:101248005D8F832784FF98C719A8832784FF984751
:10125800B707B0FFFD177D8F832784FF98C701006C
:10126800224431018280311122C840082328A4FE7B
:10127800AE873687A307F4FEB2872307F4FEBA8742
:10128800A306F4FE232C04FE232A04FE832704FF6E
:101298009C4B232CF4FE0347F4FEBA878607BA97C3
:1012A8001D47B317F700232AF4FE832744FF93C78B
:1012B800F7FF032784FFF98F232CF4FE8346D4FE1F
:1012C8000347F4FEBA878607BA97B397F600232A2E
:1012D800F4FE032784FF832744FFD98F232CF4FED1
:1012E800832704FF032784FF98CB0347E4FE99472D
:1012F80063E6E706832704FFDC5B232CF4FE8347C1
:10130800E4FE1387F7FFBA878A07BA977D47B317B2
:10131800F700232AF4FE832744FF93C7F7FF032728
:1013280084FFF98F232CF4FE8346F4FE8347E4FE02
:101338001387F7FFBA878A07BA97B397F600232A65
:10134800F4FE032784FF832744FFD98F232CF4FE60
:10135800832704FF032784FFD8DBE9A80347E4FEBB
:10136800B14763E6E706832704FF9C5B232CF4FE62
:101378008347E4FE138797FFBA878A07BA977D47A2
:10138800B317F700232AF4FE832744FF93C7F7FF18
:10139800032784FFF98F232CF4FE8346F4FE83474A
:1013A800E4FE138797FFBA878A07BA97B397F600C0
:1013B800232AF4FE032784FF832744FFD98F232C95
:1013C800F4FE832704FF032784FF98DBA5A0832767
:1013D80004FFDC57232CF4FE8347E4FE138737FF12
:1013E800BA878A07BA977D47B317F700232AF4FE0E
:1013F800832744FF93C7F7FF032784FFF98F232C24
:10140800F4FE8346F4FE8347E4FE138737FFBA876A
:101418008A07BA97B397F600232AF4FE032784FFB6
:10142800832744FFD98F232CF4FE832704FF032747
:1014380084FFD8D70100424451018280411122C65D
:101448000008232AA4FE2328B4FE232C04FE8327A5
:1014580044FF9C47232CF4FE032784FFE577FD1700
:10146800F98F232CF4FE032784FF832704FFD98FE9
:10147800232CF4FE832744FF032784FF98C7010029
:10148800324441018280211122CA20082326A4FE69
:10149800AE873687A305F4FEB2872305F4FEBA8724
:1014A800A304F4FE232C04FE232A04FE232804FEAE
:1014B8008327C4FE9C4B232CF4FE0347B4FEBA8753
:1014C8008607BA971D47B317F700232AF4FE832728
:1014D80044FF93C7F7FF032784FFF98F232CF4FEFB
:1014E800834694FE0347B4FEBA878607BA97B39734
:1014F800F600232AF4FE032784FF832744FFD98FAD
:10150800232CF4FE8327C4FE032784FF98CB83276C
:10151800C4FE9C5F232CF4FE832784FFD1838D8B2C
:101528002328F4FE832704FF93F7F70F0347A4FE4D
:10153800B307F74093F7F70F890793F7F70F3E873D
:10154800BA878A07BA977D47B317F700232AF4FEAC
:10155800832744FF93C7F7FF032784FFF98F232CC2
:10156800F4FE0347B4FE832704FF93F7F70F83467F
:10157800A4FEB387F64093F7F70F890793F7F70FA1
:10158800BE86B6878A07B697B317F700232AF4FEF4
:10159800032784FF832744FFD98F232CF4FE832756
:1015A800C4FE032784FF98DF010052446101828052
:1015B800311122C840082328A4FEAE87A307F4FEF1
:1015C800232C04FE232A04FE832704FF9C5F232C7C
:1015D800F4FE032784FFB707D0FFFD17F98F232CEC
:1015E800F4FE8347F4FEFD17232AF4FE832744FF05
:1015F800D207032784FFD98F232CF4FE832704FF07
:10160800032784FF98DF0100424451018280511171
:1016180022C46000232CA4FE232AB4FE832744FF9F
:1016280099CB832784FFD843B70700045D8F8327AE
:1016380084FFD8C319A8832784FFD843B70700FCC1
:10164800FD177D8F832784FFD8C301002244310111
:101658008280711122C04000B7F7FF1F938747703F
:101668009C433E85024411018280611122C2200000
:10167800232CA4FE832784FF9843C167F9177D8F25
:10168800832784FF98C3832784FF23A00700832729
:1016980084FF23A20700832784FF23A4070083274E
:1016A80084FF23A60700032784FFB7070240A1078A
:1016B800631BF700B7070240D843B7070240136718
:1016C800F700D8C3D1A8032784FFB7070240F10762
:1016D800631BF700B7070240D843B70702401367F8
:1016E800070FD8C355A8032784FFB707024093877D
:1016F8000703631DF700B7070240D443B70702404A
:101708000567130707F0558FD8C379A0032784FF0F
:10171800B707024093874704631BF700B7070240E7
:10172800D443B70702403D67558FD8C3B5A00327F8
:1017380084FFB707024093878705631CF700B70744
:101748000240D443B707024037070F00558FD8C36C
:10175800A1A0032784FFB70702409387C706631C2D
:10176800F700B7070240D443B70702403707F00035
:10177800558FD8C315A0032784FFB7070240938766
:101788000708631BF700B7070240D443B7070240B6
:101798003707000F558FD8C30100124421018280FA
:1017A800411122C60008232AA4FE2328B4FE232CB4
:1017B80004FE832744FF9C43232CF4FE032784FF65
:1017C800E177BD07F98F232CF4FE832704FF9847A0
:1017D800832704FF9C535D8F832704FF9C4B5D8FF9
:1017E800832704FFDC4B5D8F832704FF9C4F5D8FAD
:1017F800832704FFDC4F5D8F832704FFDC535D8F55
:10180800832704FF9C57D98F032784FFD98F232C64
:10181800F4FE832744FF032784FF98C3832704FF2C
:10182800D847832744FFD8C3832704FF98438327D7
:1018380044FF98C7832704FFD843832744FFD8C7AA
:101848000100324441018280511122C46000232CDE
:10185800A4FE232AB4FE832744FF91CB832784FF69
:101868009C4313E71700832784FF98C311A8832795
:1018780084FF9843C167F9177D8F832784FF98C336
:101888000100224431018280511122C46000232AC0
:10189800A4FE232C04FEB707014093870740232C9E
:1018A800F4FE832744FFDC4763800712B707014033
:1018B800938707409443832744FF9C4313C7F7FF4C
:1018C800B707014093870740758F98C3B707014052
:1018D80093870740D443832744FF9C4313C7F7FFEC
:1018E800B707014093870740758FD8C3832744FF04
:1018F800DC43032784FFBA97232CF4FE832784FF55
:101908009443832744FF9843832784FF558F98C3C4
:10191800B7070140938707409447832744FF9C43B8
:1019280013C7F7FFB707014093870740758F98C71C
:10193800B707014093870740D447832744FF9C4358
:1019480013C7F7FFB707014093870740758FD8C7BC
:10195800832744FF9847C147631FF702B707014031
:10196800938707409447832744FF9843B70701406C
:1019780093870740558F98C7B7070140938707405B
:10198800D447832744FF9843B7070140938707400C
:10199800558FD8C7B1A8B707014093870740232CB4
:1019A800F4FE832744FF9C47032784FFBA97232C20
:1019B800F4FE832784FF9443832744FF98438327B7
:1019C80084FF558F98C32DA0832744FFDC4303274A
:1019D80084FFBA97232CF4FE832784FF944383273C
:1019E80044FF9C4313C7F7FF832784FF758F98C371
:1019F8000100224431018280411122C600082328B7
:101A0800A4FE232C04FE232A04FEB7070140938773
:101A180007409C43032704FFF98F232AF4FEB707E6
:101A2800014093870740D84B832704FFF98F81CB68
:101A3800832744FF89C78547232CF4FE19A0232C4C
:101A480004FE832784FF3E85324441018280611170
:101A580022C22000232CA4FEB70701409387074029
:101A6800032784FFD8CB010012442101828013018F
:101A7800C1FD22D040102320A4FE232EB4FC232C29
:101A880004FE232604FE232A04FE232404FE23281E
:101A980004FE232204FE8327C4FD9C47BD8B232C10
:101AA800F4FE8327C4FD9C47C18B89CB8327C4FDE3
:101AB800DC43032784FFD98F232CF4FE8327C4FD3E
:101AC8009E2393F7F70FE9CF832704FE9C4323282F
:101AD800F4FE232A04FE5DA8832744FF0547B317B5
:101AE800F7002324F4FE8327C4FD9E233E87832723
:101AF80084FEF98F2326F4FE0327C4FE832784FE81
:101B08006311F708832744FF8A072324F4FE8327F9
:101B180084FE3D47B317F7002322F4FE832744FED3
:101B280093C7F7FF032704FFF98F2328F4FE8327C1
:101B380084FE032784FFB317F700032704FFD98F18
:101B48002328F4FE8327C4FD984793078002631B6C
:101B5800F700832744FF05473317F700832704FE60
:101B6800D8CB05A08327C4FD984793078004631A40
:101B7800F700832744FF05473317F700832704FE40
:101B880098CB832744FF8507232AF4FE032744FFC5
:101B98009D47E3F3E7F4832704FE032704FF98C374
:101BA80001000254130141028280411122C600083B
:101BB800232AA4FEAE872319F4FEA30D04FE83276F
:101BC80044FF9847835724FFF98F89C78547A30D9A
:101BD800F4FE19A0A30D04FE8347B4FF3E853244EA
:101BE80041018280511122C46000232CA4FEAE87DB
:101BF800231BF4FE035764FF832784FF98CB01005F
:101C0800224431018280511122C46000232CA4FE99
:101C1800AE87231BF4FE035764FF832784FFD8CBCA
:101C28000100224431018280111122CC6008232452
:101C3800A4FE2322B4FE232A04FE232804FE232C18
:101C480004FE232604FE832784FEC183BD8B23263E
:101C5800F4FE032784FEC167FD17F98F232AF4FEDB
:101C6800B7070140DC47232CF4FE032784FEB7079F
:101C78000008F98FFDC3032784FEB70730007D8F66
:101C8800B70730006315F702032784FFB70700F989
:101C9800FD17F98F232CF4FEB7070140D447B70787
:101CA8000140370700F97D17758FD8C7F5A80327B6
:101CB80084FEB7074000F98FA9C78327C4FE1D47D4
:101CC800B317F7002328F4FE832704FF93C7F7FF11
:101CD800032784FFF98F232CF4FE832744FE81CF4A
:101CE8008327C4FE032744FFB317F700032784FFA5
:101CF800D98F232CF4FEB7070140032784FFD8C7E8
:101D0800D1A8032784FEB70730007D8FB7072000CE
:101D18006314F7028327C4FEC1071D47B317F700F2
:101D28002328F4FE832704FF93C7F7FF032784FFC4
:101D3800F98F232CF4FE8DA88327C4FE1D47B31703
:101D4800F7002328F4FE832704FF93C7F7FF032730
:101D580084FFF98F232CF4FE81A8032784FEB7079C
:101D68001000F98F95C38327C4FE3D47B317F700CA
:101D78002328F4FE832704FF93C7F7FF032784FF74
:101D8800F98F232CF4FE0DA0832784FED5839D8B29
:101D98009207032744FFB317F70093C7F7FF0327FA
:101DA80084FFF98F232CF4FE832744FE99CF8327E1
:101DB80084FED5839D8B9207032744FFB317F70052
:101DC800032784FFD98F232CF4FEB707014003278C
:101DD80084FFD8C7624471018280511122C4600017
:101DE800AA872E87A30BF4FEBA87230BF4FE232CB5
:101DF80004FE834764FF86070D47B317F700232CBB
:101E0800F4FEB70701409447832784FF13C7F7FF01
:101E1800B7070140758F98C7B707014098478346B1
:101E280074FF834764FF8607B397F600BE86B7073B
:101E38000140558F98C70100224431018280111159
:101E480006CC22CA6008232204FE232404FE23268B
:101E580004FE232804FE85451305C003EF00F04C5B
:101E6800B7F7FF1F938747709C4393F7F7F0232832
:101E7800F4FE032704FFB717740093870780630AEB
:101E8800F746032704FFB717740093870780E3E03A
:101E9800E710032704FFB7177300938707806308C9
:101EA800F73E032704FFB717730093870780E3E023
:101EB800E70E032704FFB707720093870760E30A5A
:101EC800F70C032704FFB707720093870760E3E066
:101ED800E70C032704FFB7077100938707606306C1
:101EE800F734032704FFB707710093870760E3E01F
:101EF800E70A032704FFB717700093870780630C6E
:101F0800F744032704FFB717700093870780E3E0BF
:101F1800E708032704FFB707640093870760630394
:101F2800F72C032704FFB707640093870760E3E0F3
:101F3800E706032704FFB707630093870760630B6F
:101F4800F71A032704FFB707630093870760E3E0E6
:101F5800E704032704FFB707620093870760630E4F
:101F6800F71C032704FFB707620093870760E3E0C5
:101F7800E702032704FFB70761009387076063013F
:101F8800F720032704FFB707610093870760E3E0A2
:101F9800E700032704FFB707600093870760630C17
:101FA800F77E032704FFB70760009387076063E0A5
:101FB800E77E032704FFB707530093870760630E84
:101FC800F73E032704FFB70753009387076063E0D2
:101FD800E77C032704FFB707520093870760630075
:101FE800F746032704FFB70752009387076063E0AB
:101FF800E77A032704FFB707510093870760630256
:10200800F748032704FFB70751009387076063E089
:10201800E778032704FFB707500093870760630436
:10202800F74A032704FFB70750009387076063E068
:10203800E776032704FFB707410093870760630526
:10204800F770032704FFB70741009387076063E031
:10205800E774032704FFB70740009387076063020C
:10206800F76A032704FFB70740009387076063E018
:10207800E772032704FFB707240093870760630408
:10208800F746032704FFB70724009387076063E038
:10209800E770032704FFB7072300938707606307E8
:1020A800F74C032704FFB70723009387076063E013
:1020B800E76E032704FFB707220093870760630AC8
:1020C800F752032704FFB70722009387076063E0EE
:1020D800E76C032704FFB707200093870760630FA7
:1020E800F75C032704FFB7072100938707606304A1
:1020F800F75871AD9307900E2312F4FE93078002F0
:102108002326F4FE930744FEBE85B71701401385C6
:102118000780EFF0DF959307F0072312F4FE93078B
:1021280080022326F4FE930744FEBE85B7170140BC
:10213800138507C0EFF0BF9385A59307900E231270
:10214800F4FE930780022326F4FE930744FEBE851F
:10215800B717014013850780EFF07F919307F007C9
:102168002312F4FE930780022326F4FE930744FE0D
:10217800BE85B7170140138507C0EFF05F8F29AD03
:10218800930700082312F4FE930780022326F4FE27
:10219800930744FEBE85B717014013850780EFF00B
:1021A8001F8D930740072312F4FE9307800223260E
:1021B800F4FE930744FEBE85B7170140138507C098
:1021C800EFF0FF8A9307800C2312F4FE9307800236
:1021D8002326F4FE930744FEBE8537150140EFF031
:1021E8001F895DAB9307900F2312F4FE93078002BB
:1021F8002326F4FE930744FEBE85B71701401385D6
:102208000780EFF0DF869307F0072312F4FE9307A9
:1022180080022326F4FE930744FEBE85B7170140CB
:10222800138507C0EFF0BF8485AB9307000823121E
:10223800F4FE930780022326F4FE930744FEBE852E
:10224800B717014013850780EFF07F829307400797
:102258002312F4FE930780022326F4FE930744FE1C
:10226800BE85B7170140138507C0EFF05F8093075D
:10227800800C2312F4FE930780022326F4FE9307B2
:1022880044FEBE8537150140EFF06FFE31A393077A
:10229800000C2312F4FE930780022326F4FE930712
:1022A80044FEBE85B717014013850780EFF02FFC69
:1022B800930740072312F4FE930780022326F4FEB7
:1022C800930744FEBE85B7170140138507C0EFF09A
:1022D8000FFA9307900C2312F4FE9307800223262B
:1022E800F4FE930744FEBE8537150140EFF02FF842
:1022F80065A19307000C2312F4FE9307800223269E
:10230800F4FE930744FEBE85B71701401385078086
:10231800EFF0EFF5930740072312F4FE93078002CE
:102328002326F4FE930744FEBE85B71701401385A4
:1023380007C0EFF0CFF39307800C2312F4FE930746
:1023480080022326F4FE930744FEBE85371501401C
:10235800EFF0EFF191A19307000C2312F4FE93071D
:1023680080022326F4FE930744FEBE85B71701407A
:1023780013850780EFF0AFEF930740072312F4FEB1
:10238800930780022326F4FE930744FEBE85B71701
:102398000140138507C0EFF08FED9307B00C2312AF
:1023A800F4FE930780022326F4FE930744FEBE85BD
:1023B80037150140EFF0AFEBC5A69307900623123F
:1023C800F4FE930780022326F4FE930744FEBE859D
:1023D800B717014013850780EFF06FE9AD47231267
:1023E800F4FE930780022326F4FE930744FEBE857D
:1023F800B7170140138507C0EFF06FE79307C002D6
:102408002312F4FE930780022326F4FE930744FE6A
:10241800BE8537150140EFF08FE59307C0062312FC
:10242800F4FE930780022326F4FE930744FEBE853C
:10243800B717014013850740EFF06FE3B1AE93077C
:1024480090062312F4FE930780022326F4FE9307D6
:1024580044FEBE85B717014013850780EFF02FE1D2
:10246800AD472312F4FE930780022326F4FE930758
:1024780044FEBE85B7170140138507C0EFF02FDF74
:1024880021AE930790062312F4FE930780022326B9
:10249800F4FE930744FEBE85B717014013850780F5
:1024A800EFF0EFDCAD472312F4FE930780022326FA
:1024B800F4FE930744FEBE85B7170140138507C095
:1024C800EFF0EFDAD1AC9307800C2312F4FE9307F8
:1024D80080022326F4FE930744FEBE85371501408B
:1024E800EFF0EFD855AC9307900F2312F4FE930743
:1024F80080022326F4FE930744FEBE85B7170140E9
:1025080013850780EFF0AFD69307F0072312F4FE88
:10251800930780022326F4FE930744FEBE85B7176F
:102528000140138507C0EFF08FD49307900E231254
:10253800F4FE930780022326F4FE930744FEBE852B
:1025480037150140EFF0AFD29307D0082312F4FEFD
:10255800930780022326F4FE930744FEBE85B7172F
:10256800014013850740EFF08FD03DA49307900FEB
:102578002312F4FE930780022326F4FE930744FEF9
:10258800BE85B717014013850780EFF04FCE93073C
:10259800F0072312F4FE930780022326F4FE930724
:1025A80044FEBE85B7170140138507C0EFF02FCC56
:1025B800930760022312F4FE930780022326F4FE99
:1025C800930744FEBE8537150140EFF04FCA9307C5
:1025D800C0062312F4FE930780022326F4FE930715
:1025E80044FEBE85B717014013850740EFF02FC89A
:1025F80065A29307900F2312F4FE93078002232607
:10260800F4FE930744FEBE85B71701401385078083
:10261800EFF0EFC59307F0072312F4FE930780024B
:102628002326F4FE930744FEBE85B71701401385A1
:1026380007C0EFF0CFC3930700022312F4FE9307FD
:1026480080022326F4FE930744FEBE853715014019
:10265800EFF0EFC1B5472312F4FE9307800223265B
:10266800F4FE930744FEBE85B71701401385074063
:10267800EFF0EFBF15A29307900F2312F4FE930714
:1026880080022326F4FE930744FEBE85B717014057
:1026980013850780EFF0AFBD9307F0072312F4FE10
:1026A800930780022326F4FE930744FEBE85B717DE
:1026B8000140138507C0EFF08FBBF9A89307900F6F
:1026C8002312F4FE930780022326F4FE930744FEA8
:1026D800BE85B717014013850780EFF04FB9930700
:1026E800F0072312F4FE930780022326F4FE9307D3
:1026F80044FEBE85B7170140138507C0EFF02FB71A
:1027080061A89307900E2312F4FE930780022326F4
:10271800F4FE930744FEBE85B71701401385078072
:10272800EFF0EFB49307F0072312F4FE930780024B
:102738002326F4FE930744FEBE85B7170140138590
:1027480007C0EFF0CFB289A89307900E2312F4FECA
:10275800930780022326F4FE930744FEBE85B7172D
:10276800014013850780EFF08FB09307F00723121D
:10277800F4FE930780022326F4FE930744FEBE85E9
:10278800B7170140138507C0EFF06FAE31A0010005
:1027980021A0010011A001000100E2405244710192
:1027A8008280611122C22000232CA4FE032784FF0B
:1027B80023AAE1980100124421018280011122CE4E
:1027C80000102320A4FE03A7419985476312F70848
:1027D800832704FE983385476310F704832704FE94
:1027E8009C233E87832704FEBC239A07E207E187E0
:1027F80093E707F8E207E18793F7F70F232CE4FE46
:10280800A30BF4FE37E700E0832784FFBA9703475A
:1028180074FF2380E7402DA8832704FE9C338DEBAB
:10282800832704FE9C233E87832704FEBC239A0744
:1028380093F7F70F2328E4FEA307F4FE37E700E039
:10284800832704FFBA970347F4FE2380E74001007B
:10285800832704FEDC439DC7832704FE9C2323248F
:10286800F4FE832784FEFD8B0547B316F70037E790
:1028780000E0832784FE9583938707048A07BA9725
:1028880094C30DA8832704FE9C232322F4FE8327E8
:1028980044FEFD8B0547B316F70037E700E08327B2
:1028A80044FE9583938707068A07BA9794C30F1047
:1028B800000001000100724405618280511122C4A8
:1028C8006000232AA4FE232C04FEB7170240DC4331
:1028D800232CF4FE032784FFB707FF7F9387F77F36
:1028E800F98F232CF4FE032784FF832744FFD98F15
:1028F800232CF4FEB7170240032784FFD8C3010036
:10290800224431018280111106CC22CA6008232298
:10291800A4FE232804FE232604FE232404FEB7175E
:102928000240DC43B18B2328F4FE032704FFA147B0
:102938006300F704032704FFA14763E5E70683273D
:1029480004FF99C7032704FF9147630BF70099A871
:10295800832744FE37376E011307076098C399A889
:10296800832744FE37376E011307076098C399A081
:10297800B7170240D843C167F98F2326F4FE83278F
:10298800C4FE89EB832744FE3777DC02130707C0B0
:1029980098C30DA0832744FE3777DC02130707C0CE
:1029A80098C309A8832744FE37376E0113070760C9
:1029B80098C30100B7170240DC4393F7070F232899
:1029C800F4FE832704FF91832328F4FEB707002031
:1029D8001387C702832704FFBA979C2393F7F70F3F
:1029E8002324F4FEB7170240DC4393F7070899EF56
:1029F800832744FE9C43832584FE3E85EFD0CFEA9F
:102A0800AA873E87832744FED8C319A8832744FE94
:102A18009843832784FE3357F700832744FED8C39F
:102A2800832744FED843832744FE98C7832744FE60
:102A3800D843832744FED8C7B7170240D843C16795
:102A480093870780F98F2328F4FE832704FFAD833B
:102A58002328F4FE832704FF8D8313F73700832789
:102A680004FF8A07F18BD98F2328F4FE832704FFFC
:102A780013F737018D4763F8E700832704FFD11761
:102A88002328F4FE31A0832704FF8D8B2328F4FE2E
:102A9800B7170240DC4363D90700832744FED847B1
:102AA800832744FE98CB15A8B70700201387C703D0
:102AB800832704FFBA979C2393F7F70F2324F4FE88
:102AC800832744FEDC47832584FE3E85EFD0CFDD97
:102AD800AA873E87832744FE98CB0100E2405244F0
:102AE80071018280511122C46000232CA4FE232A84
:102AF800B4FE832744FF99CBB7170240D44BB717CE
:102B08000240032784FF558FD8CB21A8B71702406E
:102B1800D44B832784FF13C7F7FFB7170240758F7D
:102B2800D8CB0100224431018280511122C46000B7
:102B3800232CA4FE232AB4FE832744FF99CBB7177E
:102B48000240944FB7170240032784FF558F98CF50
:102B580021A8B7170240944F832784FF13C7F7FFB4
:102B6800B7170240758F98CF010022443101828047
:102B7800511122C46000232CA4FE232AB4FE83270B
:102B880044FF99CBB7170240D44FB7170240032729
:102B980084FF558FD8CF21A8B7170240D44F832779
:102BA80084FF13C7F7FFB7170240758FD8CF01000E
:102BB800224431018280511122C46000232CA4FEDA
:102BC800232AB4FE832744FF99CBB7170240D44782
:102BD800B7170240032784FF558FD8C721A8B71716
:102BE8000240D447832784FF13C7F7FFB717024073
:102BF800758FD8C70100224431018280411122C655
:102C08000008232AA4FE2328B4FE231D04FE03275C
:102C180044FFB7370140938707C06308F7000327CD
:102C280044FFB70700406318F708832744FF9E2333
:102C3800231DF4FE8357A4FF93F7F7F8231DF4FE32
:102C4800832704FFBE230357A4FFD98F231DF4FE57
:102C58008357A4FF93F7F7CF231DF4FE832704FFC0
:102C6800FE230357A4FFD98F231DF4FE832744FFB7
:102C78000357A4FF9AA3832704FFDA23832744FF7B
:102C8800DAB7832704FF9A23832744FF9AB70327D9
:102C980044FFB7370140938707C06319F7008327BC
:102CA80004FF9C273E87832744FF9ABB832744FF62
:102CB8000547DAABB9A0032744FFB717004093874D
:102CC80007806310F704832744FF9E23231DF4FE27
:102CD8008357A4FF93F7F7F8231DF4FE832704FF17
:102CE800BE230357A4FFD98F231DF4FE832744FF77
:102CF8000357A4FF9AA3832704FFDA23832744FFFB
:102D0800DAA70100324441018280311122C840080B
:102D18002328A4FE2326B4FE231B04FE231D04FE41
:102D2800231C04FE832704FF9E33C207C183BD9B77
:102D3800139707014183832704FF9AB3832704FF6E
:102D48009E33231DF4FE832704FFDE23231CF4FE99
:102D5800832704FF9E2F231BF4FE835764FF3E87BF
:102D6800E577FD17F98F231BF4FE835764FF93F76C
:102D7800F7CF231BF4FE8327C4FE9E23A207C207B6
:102D8800C183035764FFD98F231BF4FE8357A4FF25
:102D980093F7F7FD231DF4FE8327C4FE9E279207B1
:102DA800C207C1830357A4FFD98F231DF4FE8327CD
:102DB800C4FEBE239207C207C1830357A4FFD98F5D
:102DC800231DF4FE032704FFB7370140938707C08C
:102DD800631AF7088357A4FF93F7F7F7231DF4FE48
:102DE8008327C4FEBE279207C207C1830357A4FFE7
:102DF800D98F231DF4FE8357A4FF93F7F7FB231DF8
:102E0800F4FE8327C4FEDE239207C207C18303575B
:102E1800A4FFD98F231DF4FE835784FF93F7F7BFD0
:102E2800231CF4FE835784FF3E87FD779387F77F43
:102E3800F98F231CF4FE8327C4FEDE278A07C20706
:102E4800C183035784FFD98F231CF4FE8327C4FE54
:102E5800FE278A07C207C183035784FFD98F231C23
:102E6800F4FE69A0032704FFB70700406310F708C2
:102E7800B707004083D74704139707014183B70773
:102E880000401377D7FC420741832392E704B70732
:102E9800004083D74704C207C183139707014187BE
:102EA8008327C4FEDE238583C207C1839396070167
:102EB800C1868327C4FE9E278E07C207C187D58F88
:102EC80093960701C1868327C4FEBE278A07C207D7
:102ED800C187D58FC207C187D98F1397070141874B
:102EE800B7070040420741832392E704832704FF82
:102EF800035784FFDAA3832704FF035764FF9AAFBD
:102F08008327C4FEFE233E87832704FF98DF832799
:102F180004FF0357A4FF9AB3010042445101828081
:102F2800311122C840082328A4FE2326B4FE231CFE
:102F380004FE231B04FE231D04FE832704FF9E3387
:102F4800139707014183FD77FD17F98F1397070141
:102F58004183832704FF9AB3832704FF9E33231BEF
:102F6800F4FE832704FFDE23231DF4FE832704FFDA
:102F7800DE2F231CF4FE835784FF3E87E577FD1779
:102F8800F98F231CF4FE835784FF93F7F7CF231C94
:102F9800F4FE8327C4FE9E23A207C207C1830357FA
:102FA80084FFD98F231CF4FE835764FF3E87F9778B
:102FB800FD17F98F231BF4FE8327C4FE9E27B20753
:102FC800C207C183035764FFD98F231BF4FE8327ED
:102FD800C4FEBE23B207C207C183035764FFD98F5B
:102FE800231BF4FE032704FFB7370140938707C06C
:102FF8006315F7028357A4FF3E87F177FD17F98F12
:10300800231DF4FE8327C4FEDE279A07C207C18367
:103018000357A4FFD98F231DF4FE832704FF03570A
:10302800A4FFDAA3832704FF035784FFDAAF8327BB
:10303800C4FEFE233E87832704FFB8C3832704FF0B
:10304800035764FF9AB30100424451018280611121
:1030580022C22000232CA4FE832784FF239007008C
:10306800832784FF23910700832784FF2392070087
:10307800832784FF23930700832784FF2394070073
:10308800832784FF23950700832784FF239607005F
:10309800832784FF239707000100124421018280BF
:1030A800511122C46000232CA4FE232AB4FE8327D6
:1030B80044FFBDC3032784FFB7370140938707C088
:1030C8006308F700032784FFB70700406310F7027F
:1030D800832784FF9E23C207C18393E717001397B2
:1030E80007014183832784FF9AA379A0032784FFDC
:1030F800B7170040938707806310F708832784FF7A
:103108009E23C207C18393E71700139707014183E2
:10311800832784FF9AA38DA0032784FFB737014034
:10312800938707C06308F700032784FFB7070040A9
:10313800631FF700832784FF9E23C207C183F99B7F
:10314800139707014183832784FF9AA335A0032798
:1031580084FFB717004093870780631FF700832712
:1031680084FF9E23C207C183F99B139707014183FC
:10317800832784FF9AA309A0010022443101828099
:10318800511122C46000232CA4FE232AB4FE8327F5
:1031980044FF95C3832784FF83D747041397070108
:1031A8004183E177D98F139707014183832784FFF0
:1031B8002392E70415A0832784FF83D74704139736
:1031C80007014183A167FD17F98F13970701418311
:1031D800832784FF2392E70401002244310182807F
:1031E800411122C60008232CA4FEAE872328C4FE62
:1031F800231BF4FE832704FF85C3832784FFDE2770
:10320800C207C183035764FFD98F1397070141830E
:10321800832784FFDAA725A0832784FFDE27139757
:1032280007014183835764FF93C7F7FFC207C18330
:10323800F98F139707014183832784FFDAA70100D9
:10324800324441018280411122C60008232CA4FE89
:10325800AE872328C4FE231BF4FE832704FFADC7D3
:10326800032784FFB7370140938707C06308F70037
:10327800032784FFB70700406311F702832784FF01
:10328800DE27C207C183035764FFD98F139707014D
:103298004183832784FFDAA775A0032784FFB71724
:1032A800004093870780631FF708832784FFDE2386
:1032B800C207C183035764FFD98F1397070141835E
:1032C800832784FFDAA3BDA8032784FFB73701400B
:1032D800938707C06308F700032784FFB7070040F8
:1032E8006316F702832784FFDE27139707014183BC
:1032F800835764FF93C7F7FFC207C183F98F1397FA
:1033080007014183832784FFDAA72DA8032784FFB9
:10331800B7170040938707806316F702832784FF57
:10332800DE23139707014183835764FF93C7F7FF91
:10333800C207C183F98F139707014183832784FF4D
:10334800DAA309A00100324441018280511122C44C
:103358006000232CA4FE232AB4FE832744FFBDC3A8
:10336800032784FFB7370140938707C06308F70036
:10337800032784FFB70700406310F702832784FF01
:103388009E23C207C18393E7070813970701418368
:10339800832784FF9AA349A8032784FFB71700400F
:1033A800938707806312F708832784FF9E23C20749
:1033B800C18393E70708139707014183832784FF95
:1033C8009AA39DA0032784FFB7370140938707C0BE
:1033D8006308F700032784FFB70700406310F7026C
:1033E800832784FF9E23C207C18393F7F7F71397B8
:1033F80007014183832784FF9AA33DA0032784FF05
:10340800B7170040938707806310F702832784FF6C
:103418009E23C207C18393F7F7F7139707014183E8
:10342800832784FF9AA309A00100224431018280E6
:10343800411122C60008232AA4FEAE872319F4FEF0
:10344800231D04FE032744FFB7370140938707C0B5
:103458006308F700032744FFB70700406310F70429
:10346800832744FF9E2F231DF4FE8357A4FF3E8726
:10347800FD779387F77FF98F231DF4FE835724FF89
:10348800A207C207C1830357A4FFD98F231DF4FEE7
:10349800832744FF0357A4FF9AAF91A0032744FF53
:1034A800B717004093870780631BF702832744FF01
:1034B800DE23231DF4FE8357A4FFF59B231DF4FE92
:1034C800835724FF8983C207C1830357A4FFD98F79
:1034D800231DF4FE832744FF0357A4FFDAA301004A
:1034E800324441018280411122C60008232AA4FEE9
:1034F800AE872319F4FE231D04FE032744FFB737C4
:103508000140938707C06308F700032744FFB70704
:1035180000406310F704832744FFDE2F231DF4FEC9
:103528008357A4FF3E87FD779387F77FF98F231D85
:10353800F4FE835724FFA207C207C1830357A4FFE1
:10354800D98F231DF4FE832744FF0357A4FFDAAF66
:1035580081A0032744FFB7170040938707806319AA
:10356800F702832744FFDE23231DF4FE8357A4FFBD
:10357800DD9B231DF4FE8357A4FF3E87835724FF5A
:10358800D98F231DF4FE832744FF0357A4FFDAA332
:103598000100324441018280511122C46000232C71
:1035A800A4FEAE87231BF4FE835764FF93C7F7FF7F
:1035B800139707014183832784FF9AAB01002244B4
:1035C80031018280130141FC06DC22DA60182324D1
:1035D800A4FC2322B4FC232604FE232804FE23246F
:1035E80004FE232204FE232004FE832784FC2320D8
:1035F800F4FE832784FC9E2BC207C1832326F4FE96
:103608000327C4FEB567FD17F98F2326F4FE832729
:1036180044FCFE233E878327C4FED98F2326F4FE6D
:103628008327C4FE139707014183832784FC9AAB41
:10363800832784FCDE27C207C1832326F4FE0327E1
:10364800C4FEBD679387379FF98F2326F4FE83272F
:1036580044FCDA23832744FC9E27D98F139707015C
:103668004183832744FCBE27D98FC207C1833E8785
:103678008327C4FED98F2326F4FE8327C4FE13971D
:1036880007014183832784FCDAA7832784FCDE2B88
:10369800C207C1832326F4FE0327C4FEC1679387AC
:1036A800F7CFF98F2326F4FE832744FCDE273E87D5
:1036B8008327C4FED98F2326F4FE8327C4FE1397DD
:1036C80007014183832784FCDAAB9307C4FC3E855A
:1036D800EFF06FA3032704FEB747014093870780E5
:1036E8006317F700832784FD2328F4FE29A0832786
:1036F80044FD2328F4FE032704FFBA878607BA97F8
:103708008E073E97832744FC9C438A07BE853A85EB
:10371800EFC09F99AA872324F4FE032784FEB78766
:10372800EB519387F751B337F70295839207232616
:10373800F4FE8327C4FE13D7470093074006B30758
:10374800F702032784FEB307F7402322F4FE8327FA
:1037580044FE920713872703B787EB519387F751E6
:10376800B337F7029583BD8B0327C4FED98F232671
:10377800F4FE8327C4FE139707014183832784FC43
:103788009AA70100E25052541301C10382805111DB
:1037980022C46000232CA4FE232AB4FE832744FFFE
:1037A80085C3832784FFDE27139707014183896731
:1037B800D98F139707014183832784FFDAA705A0D0
:1037C800832784FFDE27139707014183F977FD17C5
:1037D800F98F139707014183832784FFDAA7010034
:1037E800224431018280511122C46000232CA4FE9E
:1037F800AE87231BF4FE835764FF93F7F71F1397D5
:1038080007014183832784FFDAA3010022443101A1
:103818008280411122C60008232AA4FEAE872319FC
:10382800F4FE232C04FE832744FF9E23C207C18392
:10383800035724FFF98FC207C18389C78547232C03
:10384800F4FE19A0232C04FE832784FF3E8532440E
:1038580041018280711122C04000B707002003A7F0
:103868008701B7E71B43938737E8B337F702D58358
:1038780013F7F70F238CE19883C781993E87930745
:10388800803EB307F702139707014183239DE19810
:103898000100024411018280511122C46000232AD0
:1038A800A4FEB7F700E0D843B7F700E0799BD8C388
:1038B80083D7A1993E87832744FFB387E702232C48
:1038C800F4FEB7F700E0032784FF98CBB7F700E0D2
:1038D80023A40700B7F700E09843B7F700E01367A1
:1038E800170098C30100B7F700E0DC4313F717008F
:1038F8008547E31AF7FEB7F700E09843B7F700E00B
:10390800799B98C30100224431018280130141FD53
:1039180006D422D26010232AA4FC8545916713851A
:103928001701EFF08FA08545B70716001385071814
:10393800EFE08FAF930700022314F4FE8547232698
:10394800F4FEE1472328F4FE930784FEBE8537156D
:103958000140EFE0CF91832744FD232CF4FC231E84
:1039680004FC231F04FC231004FE231204FEA147B9
:103978002311F4FE930784FDBE85B74701401385E4
:10398800078089318545B747014013850780013590
:103998000100A25012541301C1028280011106CE07
:1039A80022CC00102324A4FE2322B4FE2320C4FE2C
:1039B800232804FE832704FE2326F4FE232804FE7E
:1039C80081A0010093050004B747014013850780D3
:1039D8008935AA87E5DB832744FE1387170023224E
:1039E800E4FE83870700C207C183BE85B74701404D
:1039F80013850780CD3B832704FF85072328F4FE22
:103A0800032704FF832704FEE34DF7FA8327C4FE48
:103A18003E85F240624405618280411106C62EC08F
:103A28000DCD1841AA8705C358417D5511CB854650
:103A3800631BD70098472300070023A2070005450A
:103A4800B240410182809847824614A398470507EF
:103A580098C7D8437D17D8C3DDB705468A853D3F4B
:103A6800F9BF011126CA06CE22CC2AC02EC2B284C2
:103A780093F71600634E06082E853EC63AC4368470
:103A8800EF20C01C2247B2472A836351950863512F
:103A9800E504998C13040002C1EFA687634FF00672
:103AA800A68763D3040081479D8C635BE3023307D9
:103AB8006740BA860245930500033AC83EC636C435
:103AC800A93FA246B2474247FD16EDF6BA9709A8A4
:103AD800898C098861D05DFF95CF81471304000365
:103AE8003E871246B306F740B29683850600B9E1D1
:103AF800A6876349F004268663D304000146F24092
:103B08006244D2443305E600056182808144D1B71E
:103B1800014349B71304000349B70245A2853AC8CF
:103B28001AC63EC4DD3DA24742473243FD17BDB722
:103B38008147A5BF02453AC63EC4C5353247A247AC
:103B4800050745B70245A2853AC43EC2F9359247F2
:103B58002247FD1779BF397126DA06DE22DC2AC032
:103B68003EC42E83BA8491EDA24693070003014711
:103B780026866C08FC86F535F2506254D2542161D1
:103B88008280B285368491CA294701446317E600CA
:103B9800635503003303604005448647A3090102C7
:103BA80013073103938767FC3EC61A853ACA2EC8A5
:103BB8001AC2EFC02FD2A5471243C245524763D459
:103BC800A700B2473E95130505039307F7FFA30F18
:103BD800A7FE1A853ACC2ECA1AC83EC2EFC0CFCC6F
:103BE8004243D24562476376B30411C8B1C4A247C1
:103BF800898BB9C302459305D002FD14393DA2470C
:103C0800918B85C306479307100602459305000369
:103C1800631EF70219359305800702450904F91454
:103C2800ED3B1647A2469245024526861D3D229544
:103C3800A1B712472A8395BF92469307D002014441
:103C4800A38FF6FE9307E7FF3EC255BFF9339305EE
:103C58008005E1B71301C1FB2AC0328522DE26DCCC
:103C68003A8486C02E87C98D3686BE848346C104B1
:103C780095E985C68D679387D7022310F102230142
:103C8800010296460245014726860C10D93B86401C
:103C98007254E254130141048280930700032310F5
:103CA800F102C5B7AA8719CCA9460144631CD600FE
:103CB800635A0500B336E000B307A040958F330779
:103CC800E0400544A645A30B0102930271039385C6
:103CD80065FC9356F6412EC23A85BE8516CC32CA8B
:103CE80036C83AC63EC4EF009026A545A2473247DB
:103CF800C2465246E24263D4A50092452E9513056A
:103D080005031383F2FFA38FA2FEBE853A851ACE60
:103D180016CC36C83EC432CA3AC6A52BA247C246FC
:103D2800E242724363E8D700324752466398F6028C
:103D38006376C70201CC9DC49647898B85C7024527
:103D48009305D0021AC2D1391243FD149646024592
:103D5800014726869A853133229515BF2A87AE8773
:103D68009A829DBF9307D002A30FF3FE01441383E9
:103D7800E2FFE9BF130181FC2EC82AC64245B2857D
:103D880006DA3ECC22D826D63284BA8436CAEF1058
:103D9800F03E2ACE42452ED001468146A285EF004C
:103DA800D061F2577D81D2463EC2E2570256F245B3
:103DB8002AC4324505473EC0A687693DAA843245D4
:103DC8009305E002850491398146054781472946D4
:103DD800E24563CCB606724582553ED43AD2EF101E
:103DE800B0452A864245AE86A285EF10A0421257FA
:103DF800A2572ACE2EC83A85BE85EF10F043F2426C
:103E080042432A86AE8616859A85EF00D068EF1061
:103E1800F03693D7F5413D8D33C6B7001D8EB305F7
:103E2800F540F2573335B500D2463EC289473EC009
:103E3800098EE247324502C40547293DD250425413
:103E48002695B254130181038280B305F6028506D4
:103E5800B337E6023307E602AE979DBF130141FD73
:103E680022D206D426D02AC82EC6328302CA0144DA
:103E7800B2478385070089EDC24781C781453E85E2
:103E8800693EA2502285125482541301C1028280D5
:103E980093075002638CF50042451ACC0504EFF0F5
:103EA800DFB76243B24785073EC6D9B7B2479384A6
:103EB800170083871700639BB7004245930550029C
:103EC8001ACC0504EFF07FB526C6E1BFD5D7130796
:103ED800D0026387E702634CF70013073002638E52
:103EE800E7041307B0026386E704814731A8130784
:103EF8000003E39CE7FEB24793842700894729A083
:103F0800B247938427008547038704009306D002AD
:103F18006301D70463C8E60293063002630ED70232
:103F28009306B002630CD70226C601452546A9426E
:103F380081A0B247938427004DBFB24793842700DE
:103F48009147D9B793060003E310D7FE93E72700FC
:103F580031A085048547C9BF93E747008504E9B7C1
:103F6800330555023247E206E18605073AC636951B
:103F7800324703070700930607FD93F5F60FE37131
:103F8800B6FE1306E00299466312C702324781461D
:103F9800254605073AC6A945324703070700130710
:103FA80007FD9372F70F637A560236CA3247130633
:103FB800C006030707006302C7046349E602130645
:103FC80080066306C7081306A006630BC708130616
:103FD800C0046307C708014635A8B386B60262075E
:103FE8006187BA96324705073AC67DB71306400778
:103FF8006308C7061306A007E9BF32468305160003
:104008000D466396E5003247114605073AC6324722
:1040180005073AC63247930500060307070063D52C
:10402800E50493058007E3CFE5E693052006E3DB87
:10403800E5E61307D7F91377F70FD545E3E4E5E687
:1040480099650A07938585CE2E97184302873246CD
:10405800830516000146E39FE5FA3247090755BF75
:10406800324705073AC685BF9305700463C7E50262
:10407800130640046343E61893063004E314D7E2BA
:104088000327030093044300A30E0100230EE1005D
:10409800BE8601472A866C08B9A093058005930659
:1040A8001004E311B7E011476318E60883250300FD
:1040B800032643009304830002C436C23EC001476E
:1040C800AA87C1464245EFF0FFB82A942683D9BB98
:1040D800832503009304430081E59965938505CE04
:1040E8005247BE862A864245EFF0BF97F9BF11476F
:1040F8006311E60213071006832503000326430015
:10410800930483003AC23EC002C4AA870547A94661
:1041180055BF524783250300930443003AC213074F
:1041280010063AC085462A8729464245EFF0BFA2C5
:1041380069BF9306100685BF524783250300930481
:1041480043003AC236C02A8781464146F9BF114723
:104158006310E602130710068325030003264300B5
:10416800930483003AC23EC002C4AA87014745B7F8
:10417800524783250300930443003AC213071006ED
:104188003AC081462A874DB7114793E74700631D18
:10419800E600130710068325030003264300930453
:1041A800830002C43AC219BF52478325030093040F
:1041B80043003AC2130710063AC071B7114763119A
:1041C800E602130710068325030003264300930421
:1041D80083003AC23EC002C4AA870147A146DDB5A2
:1041E800524783250300930443003AC2130710067D
:1041F8003AC081462A8721460DBF130610043307AB
:10420800D540032543008325030032C22A86424550
:104218003EC07D17B687A94693048300EFF09FB58B
:104228006DB513061006E1BF1301C1FD2EC832CAD1
:10423800AA851008014506C636CC3ACE3ED032C013
:104248003139B240130141028280411122C426C291
:1042580006C683070500AA840144DC81050499EF9A
:10426800A9479305310005460145DC81EFF00FF3BE
:10427800B24022852244924441018280054693053A
:1042880031000145EFF08FF1B38784008387070081
:10429800E9B7130141FD06D422D226D02A87639EAE
:1042A800060EB2842A8463F7C514C1662E83636739
:1042B800D622B7060001B336D600B306D040E19A3D
:1042C800E106B352D60017250000130525A7169559
:1042D800082193020002AA963385D240638CD2004B
:1042E8003393A500B356D700B314A60033E3660092
:1042F8003314A70093D70401BE851A853EC01AC897
:10430800EFB09FDA139704014183B306A702424333
:1043180082452AC61A853AC236C4EFB0BFDBA24628
:10432800420513570401498F3246637AD70026970E
:104338009305F6FF636497006364D7402E86824531
:10434800158F3A8532C83AC6EFB01FD69247324722
:1043580082453383A7022AC43A85420441801AC29F
:10436800EFB05FD712434205498CA2464246637BB1
:10437800640026941387F6FF63659400F916636357
:104388006400BA86A250125442060147825433652B
:10439800D600BA851301C102828063FBD5000147AC
:1043A8000145A25012548254BA851301C102828079
:1043B800C16763E5F620B7070001B3B7F600B30796
:1043C800F040E19BE10733D3F60017250000130501
:1043D800E5961A950821930200023E953383A24080
:1043E8006392A22063E0B6343335C7001345150045
:1043F800014745BF630A060EC166637DD630133593
:104408000610134515000E053353A6009726000025
:104418009386C6929A96942293020002AA963383B0
:10442800D2406392D20E935706013EC093170601FD
:10443800C1833383C5403EC2054782451A853ACABF
:104448001AC8EFB07FC6924742438245B302F502CD
:104458002AC61A8516C4EFB0FFC7A2424205935672
:104468000401C98E3246524763FA5600A696930550
:10447800F6FF63E4960063E2562C2E868245B382EB
:10448800564016853ACA32C816C6EFB0FFC19247E1
:10449800B24282453303F5022AC41685420441809C
:1044A8001AC2EFB03FC312434205498CA2464246A6
:1044B8005247637B640026949385F6FF63659400F6
:1044C800F91663636400AE86A25012544206825401
:1044D8003365D600BA851301C1028280933606106F
:1044E80093C616008E06F1BB0143972600009386FB
:1044F800E6849A969422014593020002AA96338391
:10450800D240E382D2F2B3146600B392650033D688
:10451800D50093D70401B356D700B3E65600BE853D
:1045280032853314670036C43EC032CAEFB0DFB7F5
:104538001396040141823303A60232C252468245D1
:104548002AC832851AC6EFB0FFB8A24632434205E0
:10455800C182C98E424763FB6600A6961306F7FF21
:1045680063E9961C63F7661C7917A6968245B3869D
:10457800664036853ACC36CAEFB01FB39247D2466A
:1045880082453383A7022AC836851AC6EFB09FB47E
:104598002C8432434205C98D4246624763FB65005D
:1045A800A6959306F6FF63E2951863F065187916E9
:1045B800A695420733836540518F41B593B70610DE
:1045C80093C717008E0733D3F6001715000013059D
:1045D800E5761A950821930200023E953383A2409E
:1045E800E382A2E0B39666003354A600558CB397D5
:1045F8006500B3D6A500B352A70093540401B3E7EE
:10460800F200A6853ACE3685331766003EC21ACA2E
:1046180026C036CC3AC4EFB03FA913170401418332
:10462800B302A702E2468245AA8436853AC616C86E
:10463800EFB05FAA9247C2424205C183C98F524375
:10464800724763FB5700A2979386F4FF63E5870ED2
:1046580063F3570EF914A2978245B38757403E85F6
:104668003ACE1ACC3ECAEFB03FA4B24782452AC818
:10467800B382A702D2473E8516C6EFB0BFA53C82DB
:10468800B2424205C98FC2466243724763FB570074
:10469800A2979385F6FF63EC870863FA5708F91623
:1046A800A29713950401A24441643366D50093058B
:1046B800F4FFB376B60093D3040113550601E58DD4
:1046C800B384B602B3875740B305B50293D2040149
:1046D800B3867602AE9696963305750263F3B600F6
:1046E800229593D50601AA9563E2B7026385B700C0
:1046F800328501477DB1C165FD15B3F7B600C20724
:10470800ED8C33176700A697E374F7FE1305F6FFE1
:10471800014741B9B70600016377D6021353060172
:104728004145EDB101470545ADB9368659B5AE8667
:104738008DBF328725BDB68405B77916A6963DBBD1
:1047480079162697EDBE135386016145C1B179717B
:1047580006D622D426D2AA87EDE2B2842A8463F050
:10476800C514C1662E876361D61EB7060001B3362D
:10477800D600B306D040E19AE106B352D600171529
:1047880000001305A55B1695082193020002AA965E
:104798003385D2402AC2638BD2003397A500B3D6A3
:1047A800D700B314A600558F3394A70093D70401FC
:1047B800BE853A853EC03AC8EFB01F8F13970401F3
:1047C8004183B306E5023AC4424782453A8536C674
:1047D800EFB05F90B246420593570401C98F63F763
:1047E800D700A69763E4970063E3D73C8245958F8B
:1047F8003E853EC6EFB05F8BA24782453307F50280
:10480800B2473E853AC4EFB0FF8C931704012247A4
:104818004205C183C98F63F8E700A69763E597004F
:1048280063F3E700A697998F1247814533D5E700D0
:10483800B25022549254456182802A84E3EAD5FE1C
:104848004167AE8363EAE61C3707000133B7E60029
:104858003307E040619B610733D3E600171500007A
:104868001305C54D1A9503430500130500023A9335
:10487800B30265406317651C63E4B60063EAC700CA
:104888003384C740B386D540B3B38700B38376403B
:10489800B2502285225492549E85456182805DCA19
:1048A8004167637AE62E9336061093C616008E0685
:1048B8003355D60017170000130747482A971823BF
:1048C800130500023697B306E54036C26314E50ABD
:1048D800135706013AC0131706014183B387C54031
:1048E8003AC482453E853EC8EFB00FFCA2478245D8
:1048F8003307F502C2473E853AC6EFB0AFFD3247EF
:10490800420593570401C98F63F8E700A69763E54A
:10491800970063F3E700A6978245998F3E853EC6C8
:10492800EFB08FF8A247824542043307F502B24739
:1049380041803E853AC4EFB0EFF92247931705014D
:10494800C18FE3F2E7EED1BD9336061093C6160089
:104958008E0625B50145171700001307273E2A972D
:1049680018238146130500023697B306E54036C280
:10497800E300E5F61244B3D6E50033D7E700B314F5
:10498800860013D5040133968500339487009397E6
:104998000401518FAA85C1832AC0368536CA3AC612
:1049A8003EC4EFB06FF093970401C1833307F5025B
:1049B800D246824536853AC8EFB0CFF13247420534
:1049C800935707014247C98F63F8E700A69763E545
:1049D800970063F3E700A6978245998F3E853ECA04
:1049E800EFB08FEC93970401C1833307F502D247E8
:1049F80082453E853AC8EFB0EFED2C864247420526
:104A0800C98D63F8E500A69563E5950063F3E500B5
:104A1800A695B387E540F1B513B7061013471700FD
:104A28000E0733D3E60017150000130525311A9534
:104A380003430500130500023A93B3026540E30DF2
:104A480065E233576600B39656003364D700B3D394
:104A58006700B3D66500339755001355040133E753
:104A6800E300B3975700AA852AC036CE3685B31619
:104A780056001AD03AC416CC36C63EC8EFB0CFE2BC
:104A880022C22082F24682453306A402AA843685D1
:104A980032CAEFB02FE42247524642054183498F7C
:104AA800E2420253637CC70092479386F4FF3E9725
:104AB800636DF70E637BC70EF9143E978245118F1D
:104AC8003A8516D01ACE3ACCEFB00FDE3304A402E2
:104AD800624782452ACA3A85EFB0CFDF388442055B
:104AE800D246498F72438252637C8700924713866D
:104AF800F6FF3E976369F70A6377870AF9163E97C8
:104B0800324613950401C164558D9386F4FFB3773B
:104B1800D500F18E41814182B385D702018FB387D9
:104B2800C70293D30501B306D502B6979E973306FD
:104B3800C50263F3D700269641657D1593D6070114
:104B4800E98FC207E98D3696AE97636CC702630793
:104B5800C702C246B2502254B387F640B305C740D5
:104B680033B7F600998D33936500B3D75700925445
:104B78003365F300B3D5550045618280C246E3FA38
:104B8800F6FCB246B385D7409246B3B7B700BE9697
:104B9800158EAE877DBF37070001637CE60013558D
:104BA8000601C14601BBB286A1BFB68401BFA69764
:104BB80035B913558601E146F5B913D34501B70751
:104BC8001000FD172A871373F37F13D5460193024C
:104BD800F07FB3F3B7001375F57FF58FFD81FD8284
:104BE800630F530263025502611122C226C03A8440
:104BF800B2846311030433E7E30039E95D8E39CEEB
:104C080041EB85EEFD5615A8D18F95E3631C030291
:104C1800B3E3E3006398030281EEFD5611A8B3E302
:104C2800E3006396030063116502D18FB9CB89460F
:104C3800368582801DE58546F1F512448244368525
:104C4800210182806383D5048546E1F93685828017
:104C58004DDBE392D5FEDDD5AE86C5B7814671DF63
:104C6800D9BFE39AD5FCE34865FCE346A3FEE3E439
:104C780077FCE392F3FEE3E084FC8146E37F94FA59
:104C8800D9BFE393D5FC814665B7C1D9AE864DB788
:104C9800E38FD5FC4DB7797113D7450193D7F5014B
:104CA80022D426D206D69394C5001377F77F3EC444
:104CB8002A84B180630A07169307F07F6308F71AFE
:104CC8008E049357D501C58FB7048000DD8C9313EC
:104CD8003500130717C0014302C693D74601139442
:104CE800C60093F7F77FB282318093D5F601E5C30A
:104CF8009306F07F6386D706938717C0BA970E048A
:104D08009356D601C18E3EC237048000558C924618
:104D1800294793123600850636C88147634F6718BE
:104D280022472D8F3AC0BA860947634F67047D131F
:104D380005466367661C6386E714054736C06399B2
:104D4800E7068147014401478246D207B250C18F26
:104D58002254FE06D58F92543A85BE8545618280DD
:104D68009306F77F418E36C263090612A24605668E
:104D780013060680AD8E329736C01363330029457B
:104D88003AC8634D65468D47054633166600137766
:104D9800065315C3324789476305F70E8D47630AE3
:104DA800F714BA8736C0054726849E82E38BE7F856
:104DB800C2473EC2C9A493760624F1EA1376860850
:104DC80063000614AE86A28496833EC6E1B7B36735
:104DD800C4006383071063060436228532CC1ACADE
:104DE8001EC82EC23AC0EF00F05F02479245C24388
:104DF80052436246AA875515F546938287FF898EE6
:104E080033145400B356D600558CB3125600B3076A
:104E1800F7409387D7C03EC2924629478147850607
:104E280036C8E35F67EE51A8B3E3A4006380030AC2
:104E380036C232C06387042E2685EF00B05A024678
:104E480092462A83130755FFF547930383FF998FEB
:104E5800B3947400B357F400DD8CB31374001307D4
:104E6800D0C03307674002C6014385BDB3E3A40041
:104E7800639703048947814421431307F07F3EC6A3
:104E8800A9BD36C09307F07F0144014775BD02C034
:104E98009307F07F3704080045BD85669386068032
:104EA800369713632300A9473AC863DA672C81420F
:104EB80039478947AD466301D734A246E1BD8D47DE
:104EC800AA8331431307F07F3EC601BD854781445D
:104ED800114301473EC611B53AC292461363130007
:104EE8002947850636C8014481428547E35A67E267
:104EF800E9B702C09307F07F370408000147A9B556
:104F080041661307F6FF93D7030113D30201B3F3E6
:104F1800E30033F7E200B386E3023AC4B385E7025D
:104F280013D50601330773022E972A973385670234
:104F38002AC66374B7002A9632C6C1651386F5FF80
:104F48003375C700F18E41834205935204013ACA72
:104F5800718C3307D500338683023ACC16CE33875B
:104F6800870293560601B3837202BA939E96B3875B
:104F7800570263F3E600AE9741659305F5FFB3F278
:104F8800B600C182BE9613D70401A247ED8C36D075
:104F9800F18DD2462246C202AE9233069602B38300
:104FA8005600B3059302B306F70293570601B69568
:104FB800AE973303E30263F3D7002A934165930660
:104FC800F5FFB3F5D700C205F18EAE96C18333065F
:104FD80094029A97B3058702724413530601B304E7
:104FE8009402AE949A943307E40263F3B4002A97C8
:104FF800C165FD1533F5B4006D8E4205B245329595
:1050080002569E95B3B255002A96B292AE969697DE
:10501800B3B5B600BE953335A60033B6C20033B477
:105028005700498EB3B7F500C1805D8C269632943F
:105038003A9462479392960093D775012604B3E297
:10504800E2005D8CB3325000DD82B7070001B3E2A5
:10505800D200A605E18FB3E2B20091CF93D7120038
:1050680093F212001317F401B3E75700B3E2E70015
:10507800C24705803EC292479387F73F635AF004C0
:1050880013F7720001CF13F7F20091466308D700B7
:1050980013874200B33257001694BA8237070001CB
:1050A800618F01CBB70700FFFD177D8C924793876F
:1050B80007401307E07F634FF70A1317D40193D211
:1050C8003200260433675700318093F7F77FADB974
:1050D8000547D5EF92473356E4009387E741B396E7
:1050E800F200B336D000B317F400DD8EB3D2E2007D
:1050F800B3E6560093F7760081CF93F7F600114791
:105108006388E70093874600B3B6D7003696BE8615
:10511800B7058000F18D854701440147E39605C234
:10512800D9A0EF00302C13075501F14702469246EB
:1051380013030502E3DAE7D061158143B314A40031
:1051480039BB32851ACC1ECA2EC83AC232C0EF000B
:105158007029AA86F142550502461247C245D24334
:10516800624393870602E3D9A2C8E1168142331449
:10517800D60071B99307F07F01440147F1B6A24701
:1051880001448142AD8F3EC0BE86894771BE1D8FE6
:1051980093068003E3C7E6BAFD46E3DDE6F28556EB
:1051A800B387F64093060002B357F4006309D700AB
:1051B80012471307E7433317E400B3E2E200B336BC
:1051C8005000DD8E13F7760001441DC393F7F600F7
:1051D800114701466389E7009387460033B7D70034
:1051E8003336E000BE86131496001317D6013180BB
:1051F8008D82558F814789BE3284E9B63D47631752
:10520800E30002C03704080001473DBE22862D474F
:105218008D474DB1B7071000FD17311133F7B700AF
:105228000E0726C49354D501F58F13D34601D98CA4
:105238001317350022C68E0713D445019353D601A0
:105248003AC006C81373F37F9302F07F1374F47F98
:10525800FD81FD82B3E7F30013173600630B531A81
:1052680093C61600B3036440638FD5106356705419
:105278006302031E6309545293068003054663CAFA
:105288007602B7068000D58FFD4663CD764093063B
:105298000002B38676403396D70033557700B316AD
:1052A800D700498EB336D000B3D37700558EB38478
:1052B800744082473386C740B3B7C7009D8CB70791
:1052C800800033F7F400630C0728FD17FD8C638D0D
:1052D8000428268532C22EC0EF00D010824512461F
:1052E800930685FF930700023385D7403355A60000
:1052F8003397D400598D3316D60063C28630818E19
:105308008506958F3317F600B354D6003337E0007F
:10531800458FB317F50033E6E700B354D5000144D1
:105328009377760081CF9377F60011476388E7007B
:105338009307460033B6C700B2943E86B70780008D
:10534800E58F638E072605049307F07F6302F42038
:10535800B70780FFFD17E58F1393D7010D82A607C6
:105368003363C300B1831374F47F13F71500520439
:105378005D8C9317F7015D8CC240A2853244A2442C
:105388001A8551018280635B705C6318031AB3E667
:10539800E700638106261386F3FF630B063C6380F0
:1053A800532C1305800385466347C502B283FD4627
:1053B80063C976441306000233067640B396C700E5
:1053C800335577003316C700C98E3336C000B3D3C0
:1053D8007700D18E9E9482473386F600B336D60086
:1053E800B694B7078000E58F638B0716050493070B
:1053F800F07F630FF414B70780FFFD17E58F13578D
:105408001600058A518F1396F701598E93D4170009
:1054180001BFB3E2E70093031480638E0204638044
:10542800D5066382030C630F041A1313360013970F
:10543800D701135333003363E3008D83B685B36715
:10544800F3006387071001471304F07FB7070800CC
:10545800014331BFB3E6E700638E06189386F3FF76
:1054680063880632638D531E130580030546E342A5
:10547800D5E4B68311BD93C61600E394D5FA6387C5
:105488000318631A04269303F07F8246C58E63834C
:1054980006401385F3FF630D052C9306F07F638C9C
:1054A800D3241306800385466347A602FD4663C1DD
:1054B800A644024693060002898EB353A600B3920F
:1054C800D4003316D6003336C000B3E6720033D5A5
:1054D800A400D18EAA973386E600B336D600B384EB
:1054E800F6001A84FDBD130314001373E37F6313DE
:1054F80003189312350033E3E700B3E25400631F47
:10550800042463880234630D03360243B382F440F3
:105518003306E3403335C300B382A2403705800029
:1055280033F5A2006304054033066740858F33379F
:10553800C700B384E740B685E5B363025412130687
:1055480080038546E34976E8B7068000D58F85B5A0
:1055580013F715001304F07F8147014309BD137544
:105568007600E31205DCE5A032852EC232C09D2DFF
:1055780093068501FD4702469245E3D5D7D66115C6
:105588003315A60063C38618338686409306160033
:1055980063DED73A0516930700023356C500638ABF
:1055A800F60093070004958FB317F500B337F000A2
:1055B8005D8E137576000144E31705D649A8135389
:1055C80036009397D4011307F07F33E3670093D72E
:1055D8003400E306E4E6B207B1831374F47F13F7EB
:1055E800150071B39303F07F8245C58DF9EDBE8434
:1055F8003AC0B68582471E8413D33700D9B7370718
:1056080080FF7D17158CB374E50019BB9306140051
:1056180013F3E67F6314031013133500B3E6640035
:1056280015E863880628B3E6E700638E0628330684
:10563800E300A69733376600B384E7003705800098
:10564800658D11C5B70780FFFD17FD8C054432C075
:10565800A2834DB76383062CD98FE39607DE131315
:1056680035009397D401135333003363F30093D772
:105678003400F1B302433385F4403306E340333357
:10568800C300330565403703800033736500631D2D
:10569800030A3363A600AA84E31B03C2014701443B
:1056A8008147F1B1938603FE13060002B3D6D700F3
:1056B8006389C3001306000433067640B397C70016
:1056C8005D8F3336E000558EEDB61385F3FF630E1C
:1056D80005189305F07F6383B32013068003B6850E
:1056E800635BA60E05463306C7403337C700B3844D
:1056F800E7401A84E9B6131336001397D7011353FA
:1057080033003363E3008D831DBBB70780FFFD17AC
:10571800E98F1393D701158C8D8375BD1306F07F20
:10572800E388C6E20246A69736843305E600333797
:10573800C500BA9705811396F701498E1D8993D440
:105748001700E31205BE21B70246858FB6853306DA
:10575800C7403337C700B384E74095BE639F021242
:10576800631C031C01471304F07FB707080001B14D
:105778008246A69705443386E6003337D600B384BD
:10578800E700B7078000E58FE38B07DC0944A5B184
:105798008246B387F44005443386E64033B7C600F3
:1057A800B384E74029BE0E051393D4010D813363FA
:1057B800A30093D7340061B1E38703D23305834054
:1057C800AA83E30304E2130680036346A618370698
:1057D8008000D18CB685FD4663C8A60402449306B2
:1057E8000002898E3396D400B352A400B316D400B5
:1057F80033665600B336D00033D5A400558E898F52
:10580800DDB5138603FE9306000233D6C70063890D
:10581800D30093060004B3867640B397D7005D8F14
:10582800B336E000D18E45BE930605FE130600028E
:10583800B3D6D400630AC50013060004098E0245D6
:105848003396C400498E32C002463336C000558EA6
:1058580059BDE30503E4131736001393D7010D83ED
:105868003363E3008D83B685BDB30246858FB68565
:105878003306C7403337C700B384E740054481B4D3
:10588800931735008D831393D4013363F30093D7B3
:10589800340091B3BE843AC0B1BBE31603BA931780
:1058A80035008D831393D4013363F30093D7340009
:1058B80079B6131336001397D701135333003363A4
:1058C800E3008D8309BB131335009397D401135359
:1058D80033003363F30093D73400F5B91317360058
:1058E8001393D7010D833363E3008D83B68581BE9F
:1058F800930605FE9302000233D6D400630A5500CE
:1059080093060004898E0245B396D400C98E36C02A
:105918008246B336D000D18E7DBE1317360013935E
:10592800D7010D833363E3008D8311BE33635600C3
:105938009684E31E03D09DB3131736001393D70143
:105948000D83336367008D83B685D5BC930700024A
:10595800958F014775BAB685054671B3E38803CAC2
:105968003305834019E0AA830DB6130680038546E4
:10597800E343A6B6B7068000D58C0DBE93D7450184
:10598800370710009306F7FF93F7F77F1306E03FFA
:10599800ED8EFD816353F6021306D0436352F6027F
:1059A80005450D8D1357F541B7050080B337A000A5
:1059B800998D3305A0409D8D828001458145828067
:1059C80013062043D98E635EF6001387D7BA9387F0
:1059D800D7BC634707043317E50001459DE1BA8545
:1059E8008280130730431D8F7D466344E602938708
:1059F800D7BE3355E500B397F6005D8D33D7E60083
:105A0800F9DDB337A000B305E0403305A0409D8D14
:105A18008280130530411D8D33D5A60001477DBF17
:105A28007D47135615001D8F3356E6003397F60051
:105A3800518F3315F5005DB7311106C822C626C44B
:105A4800B367B500C5C32A872E8413D6F50163C191
:105A5800050EA2845DC422853AC232C06122930732
:105A6800E043898F9306304302461247AA8563D4E0
:105A7800F6129306604363C7F60CA1466115638C62
:105A8800D500930680028D8EB356D700B314A400B8
:105A9800D58C3317A700370580FF7D151373770062
:105AA800B3F6A400630703021373F700914263027D
:105AB80053029302470033B7E200BA9637038000D7
:105AC80033F366001687630603009307F043E98EF5
